{
  "contractName": "Charity",
  "abi": [
    {
      "anonymous": false,
      "inputs": [
        {
          "indexed": false,
          "internalType": "address",
          "name": "admin",
          "type": "address"
        }
      ],
      "name": "AdminAdded",
      "type": "event"
    },
    {
      "anonymous": false,
      "inputs": [
        {
          "indexed": false,
          "internalType": "address",
          "name": "admin",
          "type": "address"
        }
      ],
      "name": "AdminRemoved",
      "type": "event"
    },
    {
      "anonymous": false,
      "inputs": [
        {
          "indexed": false,
          "internalType": "bytes32",
          "name": "campaignId",
          "type": "bytes32"
        }
      ],
      "name": "CampaignEnded",
      "type": "event"
    },
    {
      "anonymous": false,
      "inputs": [
        {
          "indexed": false,
          "internalType": "bytes32",
          "name": "campaignId",
          "type": "bytes32"
        },
        {
          "indexed": false,
          "internalType": "address",
          "name": "donor",
          "type": "address"
        }
      ],
      "name": "CampaignStarted",
      "type": "event"
    },
    {
      "anonymous": false,
      "inputs": [
        {
          "indexed": false,
          "internalType": "address",
          "name": "donor",
          "type": "address"
        },
        {
          "indexed": false,
          "internalType": "address",
          "name": "receiver",
          "type": "address"
        },
        {
          "indexed": false,
          "internalType": "uint256",
          "name": "amount",
          "type": "uint256"
        }
      ],
      "name": "DonationMade",
      "type": "event"
    },
    {
      "anonymous": false,
      "inputs": [
        {
          "indexed": false,
          "internalType": "address",
          "name": "organization",
          "type": "address"
        }
      ],
      "name": "OrganizationRevoked",
      "type": "event"
    },
    {
      "anonymous": false,
      "inputs": [
        {
          "indexed": false,
          "internalType": "address",
          "name": "organization",
          "type": "address"
        }
      ],
      "name": "OrganizationVerified",
      "type": "event"
    },
    {
      "anonymous": false,
      "inputs": [
        {
          "indexed": false,
          "internalType": "bytes32",
          "name": "campaignId",
          "type": "bytes32"
        },
        {
          "indexed": false,
          "internalType": "bytes32",
          "name": "tokenId",
          "type": "bytes32"
        }
      ],
      "name": "TokenRedeemed",
      "type": "event"
    },
    {
      "inputs": [],
      "name": "campaignCount",
      "outputs": [
        {
          "internalType": "uint256",
          "name": "",
          "type": "uint256"
        }
      ],
      "stateMutability": "view",
      "type": "function"
    },
    {
      "inputs": [
        {
          "internalType": "bytes32",
          "name": "",
          "type": "bytes32"
        }
      ],
      "name": "campaigns",
      "outputs": [
        {
          "internalType": "string",
          "name": "title",
          "type": "string"
        },
        {
          "internalType": "string",
          "name": "image",
          "type": "string"
        },
        {
          "internalType": "string",
          "name": "description",
          "type": "string"
        },
        {
          "internalType": "uint256",
          "name": "deadline",
          "type": "uint256"
        },
        {
          "internalType": "bool",
          "name": "isLive",
          "type": "bool"
        },
        {
          "internalType": "address",
          "name": "donor",
          "type": "address"
        },
        {
          "internalType": "address",
          "name": "receiver",
          "type": "address"
        },
        {
          "internalType": "uint256",
          "name": "balance",
          "type": "uint256"
        },
        {
          "internalType": "uint256",
          "name": "deposit",
          "type": "uint256"
        }
      ],
      "stateMutability": "view",
      "type": "function"
    },
    {
      "inputs": [
        {
          "internalType": "address",
          "name": "",
          "type": "address"
        }
      ],
      "name": "verifiedOrganizations",
      "outputs": [
        {
          "internalType": "bool",
          "name": "",
          "type": "bool"
        }
      ],
      "stateMutability": "view",
      "type": "function"
    },
    {
      "inputs": [
        {
          "internalType": "address",
          "name": "_organization",
          "type": "address"
        }
      ],
      "name": "verifyOrganization",
      "outputs": [],
      "stateMutability": "nonpayable",
      "type": "function"
    },
    {
      "inputs": [
        {
          "internalType": "address",
          "name": "_organization",
          "type": "address"
        }
      ],
      "name": "revokeOrganization",
      "outputs": [],
      "stateMutability": "nonpayable",
      "type": "function"
    },
    {
      "inputs": [
        {
          "internalType": "string",
          "name": "_title",
          "type": "string"
        },
        {
          "internalType": "string",
          "name": "_description",
          "type": "string"
        },
        {
          "internalType": "string",
          "name": "_imgUrl",
          "type": "string"
        },
        {
          "internalType": "uint256",
          "name": "_deadline",
          "type": "uint256"
        },
        {
          "internalType": "uint256",
          "name": "_tokenCounts",
          "type": "uint256"
        },
        {
          "internalType": "address",
          "name": "_receiver",
          "type": "address"
        }
      ],
      "name": "startCampaign",
      "outputs": [],
      "stateMutability": "payable",
      "type": "function"
    },
    {
      "inputs": [
        {
          "internalType": "bytes32",
          "name": "campaignId",
          "type": "bytes32"
        }
      ],
      "name": "endCampaign",
      "outputs": [],
      "stateMutability": "nonpayable",
      "type": "function"
    },
    {
      "inputs": [
        {
          "internalType": "bytes32",
          "name": "campaignId",
          "type": "bytes32"
        }
      ],
      "name": "getCampaign",
      "outputs": [
        {
          "components": [
            {
              "internalType": "string",
              "name": "title",
              "type": "string"
            },
            {
              "internalType": "string",
              "name": "image",
              "type": "string"
            },
            {
              "internalType": "string",
              "name": "description",
              "type": "string"
            },
            {
              "internalType": "uint256",
              "name": "deadline",
              "type": "uint256"
            },
            {
              "internalType": "bool",
              "name": "isLive",
              "type": "bool"
            },
            {
              "internalType": "address",
              "name": "donor",
              "type": "address"
            },
            {
              "internalType": "address",
              "name": "receiver",
              "type": "address"
            },
            {
              "internalType": "uint256",
              "name": "balance",
              "type": "uint256"
            },
            {
              "internalType": "uint256",
              "name": "deposit",
              "type": "uint256"
            },
            {
              "components": [
                {
                  "internalType": "bytes32",
                  "name": "tokenId",
                  "type": "bytes32"
                },
                {
                  "internalType": "bool",
                  "name": "redeemed",
                  "type": "bool"
                },
                {
                  "internalType": "uint256",
                  "name": "price",
                  "type": "uint256"
                }
              ],
              "internalType": "struct Charity.Token[]",
              "name": "tokens",
              "type": "tuple[]"
            }
          ],
          "internalType": "struct Charity.Campaign",
          "name": "",
          "type": "tuple"
        }
      ],
      "stateMutability": "view",
      "type": "function"
    },
    {
      "inputs": [
        {
          "internalType": "bytes32",
          "name": "campaignId",
          "type": "bytes32"
        },
        {
          "internalType": "bytes32",
          "name": "tokenId",
          "type": "bytes32"
        }
      ],
      "name": "redeemToken",
      "outputs": [],
      "stateMutability": "nonpayable",
      "type": "function"
    }
  ],
  "bytecode": "0x608060405234801561001057600080fd5b5061155d806100206000396000f3fe6080604052600436106100865760003560e01c80636d567acd116100595780636d567acd146101165780637274e30d146101365780639eca2f1e14610158578063cabe04521461018d578063d77e7655146101ba57610086565b8063069445dd1461008b57806319822471146100c157806329777bc6146100e35780635c1449e114610103575b600080fd5b34801561009757600080fd5b506100ab6100a6366004610ee3565b6101da565b6040516100b8919061112f565b60405180910390f35b3480156100cd57600080fd5b506100e16100dc366004610ee3565b6101ef565b005b3480156100ef57600080fd5b506100e16100fe366004610f04565b61024a565b6100e1610111366004610f3d565b610429565b34801561012257600080fd5b506100e1610131366004610ee3565b610605565b34801561014257600080fd5b5061014b61065a565b6040516100b8919061113a565b34801561016457600080fd5b50610178610173366004610f04565b610660565b6040516100b89998979695949392919061115a565b34801561019957600080fd5b506101ad6101a8366004610f04565b610850565b6040516100b8919061138b565b3480156101c657600080fd5b506100e16101d5366004610f1c565b610b2b565b60016020526000908152604090205460ff1681565b6001600160a01b03811660009081526001602052604090819020805460ff19169055517f8a22fae4569bf2ed61be7a5768800f97175fc239f44f3dd3a38c402323f3c7f19061023f9083906110f7565b60405180910390a150565b3360009081526001602052604090205460ff166102825760405162461bcd60e51b815260040161027990611308565b60405180910390fd5b6000818152600260205260409020600481015460ff166102b45760405162461bcd60e51b8152600401610279906111d7565b806003015442116102d75760405162461bcd60e51b815260040161027990611245565b600481015461010090046001600160a01b031633146103085760405162461bcd60e51b81526004016102799061127a565b60048101805460ff191690556040517fb64ddd282ae633ff337429b65565eb00d3aeea1fa5209bed297f8adadb58ac5c9061034490849061113a565b60405180910390a1600581015460068201546040516001600160a01b039092169181156108fc0291906000818181858888f1935050505015801561038c573d6000803e3d6000fd5b50336001600160a01b03166108fc826006015483600701546103ae91906114a4565b6040518115909202916000818181858888f193505050501580156103d6573d6000803e3d6000fd5b50600581015460068201546040517f70c6bc6cf53707fb5561feef795d557f7e46f57bd4f1a13ce36e9ffdf58d38bb9261041d9233926001600160a01b039092169161110b565b60405180910390a15050565b3360009081526001602052604090205460ff166104585760405162461bcd60e51b815260040161027990611308565b600061046833838c8c8c8c610d13565b600081815260026020526040902060048101549192509060ff161561049f5760405162461bcd60e51b81526004016102799061120e565b6104aa818c8c610d85565b506104b9600282018a8a610d85565b506104c8600182018888610d85565b5060038101859055600481018054600160ff1990911617610100600160a81b03191661010033021790556005810180546001600160a01b0319166001600160a01b03851617905534600782015560005b848110156105aa57600061052c8483610d52565b604080516060810182528281526000602082015291925060088501919081016105558934611484565b90528154600180820184556000938452602093849020835160039093020191825592820151928101805460ff1916931515939093179092556040015160029091015550806105a2816114f6565b915050610518565b506000805490806105ba836114f6565b91905055507fdc0818b72ab921845d16549bba2517251c8478e66922d6feadca523530d9d36582336040516105f0929190611143565b60405180910390a15050505050505050505050565b6001600160a01b038116600090815260016020819052604091829020805460ff19169091179055517f549d40a34f01c931095d217eace0f976fc10b35869308c9333491bb6a96a67be9061023f9083906110f7565b60005481565b60026020526000908152604090208054819061067b906114bb565b80601f01602080910402602001604051908101604052809291908181526020018280546106a7906114bb565b80156106f45780601f106106c9576101008083540402835291602001916106f4565b820191906000526020600020905b8154815290600101906020018083116106d757829003601f168201915b505050505090806001018054610709906114bb565b80601f0160208091040260200160405190810160405280929190818152602001828054610735906114bb565b80156107825780601f1061075757610100808354040283529160200191610782565b820191906000526020600020905b81548152906001019060200180831161076557829003601f168201915b505050505090806002018054610797906114bb565b80601f01602080910402602001604051908101604052809291908181526020018280546107c3906114bb565b80156108105780601f106107e557610100808354040283529160200191610810565b820191906000526020600020905b8154815290600101906020018083116107f357829003601f168201915b50505060038401546004850154600586015460068701546007909701549596929560ff831695506001600160a01b03610100909304831694509116919089565b610858610e09565b6000828152600260205260409020600481015460ff1661088a5760405162461bcd60e51b8152600401610279906111d7565b80604051806101400160405290816000820180546108a7906114bb565b80601f01602080910402602001604051908101604052809291908181526020018280546108d3906114bb565b80156109205780601f106108f557610100808354040283529160200191610920565b820191906000526020600020905b81548152906001019060200180831161090357829003601f168201915b50505050508152602001600182018054610939906114bb565b80601f0160208091040260200160405190810160405280929190818152602001828054610965906114bb565b80156109b25780601f10610987576101008083540402835291602001916109b2565b820191906000526020600020905b81548152906001019060200180831161099557829003601f168201915b505050505081526020016002820180546109cb906114bb565b80601f01602080910402602001604051908101604052809291908181526020018280546109f7906114bb565b8015610a445780601f10610a1957610100808354040283529160200191610a44565b820191906000526020600020905b815481529060010190602001808311610a2757829003601f168201915b50505091835250506003820154602080830191909152600483015460ff811615156040808501919091526101009091046001600160a01b0390811660608501526005850154166080840152600684015460a0840152600784015460c084015260088401805482518185028101850190935280835260e090940193919290919060009084015b82821015610b1a57600084815260209081902060408051606081018252600386029092018054835260018082015460ff16151584860152600290910154918301919091529083529092019101610ac9565b50505050815250509150505b919050565b6000828152600260205260409020600481015460ff16610b5d5760405162461bcd60e51b8152600401610279906111d7565b80600301544210610b805760405162461bcd60e51b8152600401610279906112bd565b60005b6008820154811015610d0d5782826008018281548110610bb357634e487b7160e01b600052603260045260246000fd5b9060005260206000209060030201600001541415610cfb57816008018181548110610bee57634e487b7160e01b600052603260045260246000fd5b600091825260209091206001600390920201015460ff1615610c225760405162461bcd60e51b81526004016102799061135b565b6001826008018281548110610c4757634e487b7160e01b600052603260045260246000fd5b906000526020600020906003020160010160006101000a81548160ff021916908315150217905550816008018181548110610c9257634e487b7160e01b600052603260045260246000fd5b906000526020600020906003020160020154826006016000828254610cb7919061146c565b90915550506040517f9a9e23de1b93767b4da5983db1c8560ac499487355c698b0349423dfd248270890610cee90869086906110a5565b60405180910390a1610d0d565b80610d05816114f6565b915050610b83565b50505050565b6000848484848a8a604051602001610d30969594939291906110b3565b6040516020818303038152906040528051906020012090509695505050505050565b60008282604051602001610d679291906110a5565b60405160208183030381529060405280519060200120905092915050565b828054610d91906114bb565b90600052602060002090601f016020900481019282610db35760008555610df9565b82601f10610dcc5782800160ff19823516178555610df9565b82800160010185558215610df9579182015b82811115610df9578235825591602001919060010190610dde565b50610e05929150610e70565b5090565b6040518061014001604052806060815260200160608152602001606081526020016000815260200160001515815260200160006001600160a01b0316815260200160006001600160a01b031681526020016000815260200160008152602001606081525090565b5b80821115610e055760008155600101610e71565b80356001600160a01b0381168114610b2657600080fd5b60008083601f840112610ead578182fd5b50813567ffffffffffffffff811115610ec4578182fd5b602083019150836020828501011115610edc57600080fd5b9250929050565b600060208284031215610ef4578081fd5b610efd82610e85565b9392505050565b600060208284031215610f15578081fd5b5035919050565b60008060408385031215610f2e578081fd5b50508035926020909101359150565b600080600080600080600080600060c08a8c031215610f5a578485fd5b893567ffffffffffffffff80821115610f71578687fd5b610f7d8d838e01610e9c565b909b50995060208c0135915080821115610f95578687fd5b610fa18d838e01610e9c565b909950975060408c0135915080821115610fb9578687fd5b50610fc68c828d01610e9c565b90965094505060608a0135925060808a01359150610fe660a08b01610e85565b90509295985092959850929598565b6001600160a01b03169052565b6000815180845260208085019450808401835b8381101561104957815180518852838101511515848901526040908101519088015260609096019590820190600101611015565b509495945050505050565b15159052565b60008151808452815b8181101561107f57602081850181015186830182015201611063565b818111156110905782602083870101525b50601f01601f19169290920160200192915050565b918252602082015260400190565b600086888337868201818152858782376bffffffffffffffffffffffff19606095861b8116969091019586529290931b909116601484015250506028019392505050565b6001600160a01b0391909116815260200190565b6001600160a01b039384168152919092166020820152604081019190915260600190565b901515815260200190565b90815260200190565b9182526001600160a01b0316602082015260400190565b600061012080835261116e8184018d61105a565b90508281036020840152611182818c61105a565b90508281036040840152611196818b61105a565b6060840199909952505094151560808601526001600160a01b0393841660a08601529190921660c084015260e0830191909152610100909101529392505050565b60208082526017908201527f43616d706169676e20646f6573206e6f74206578697374000000000000000000604082015260600190565b60208082526017908201527f43616d706169676e20616c726561647920657869737473000000000000000000604082015260600190565b6020808252818101527f43616d706169676e20646561646c696e6520686173206e6f7420706173736564604082015260600190565b60208082526023908201527f4f6e6c792074686520646f6e6f722063616e20656e64207468652063616d706160408201526234b3b760e91b606082015260800190565b6020808252602b908201527f43616e6e6f742072656465656d2e2043616d706169676e20646561646c696e6560408201526a081a185cc81c185cdcd95960aa1b606082015260800190565b60208082526033908201527f4f6e6c79207665726966696564206f7267616e697a6174696f6e732063616e206040820152723832b93337b936903a3434b99030b1ba34b7b760691b606082015260800190565b602080825260169082015275151bdad95b88185b1c9958591e481c995919595b595960521b604082015260600190565b60006020825282516101408060208501526113aa61016085018361105a565b91506020850151601f19808685030160408701526113c8848361105a565b935060408701519150808685030160608701526113e5848361105a565b9350606087015160808701526080870151915061140560a0870183611054565b60a0870151915061141960c0870183610ff5565b60c0870151915061142d60e0870183610ff5565b60e087015161010087810191909152870151610120808801919091528701518685039091018387015290506114628382611002565b9695505050505050565b6000821982111561147f5761147f611511565b500190565b60008261149f57634e487b7160e01b81526012600452602481fd5b500490565b6000828210156114b6576114b6611511565b500390565b6002810460018216806114cf57607f821691505b602082108114156114f057634e487b7160e01b600052602260045260246000fd5b50919050565b600060001982141561150a5761150a611511565b5060010190565b634e487b7160e01b600052601160045260246000fdfea2646970667358221220be659f654c3affabd68c7eae1f5c202d1bd76e7c606ff12336c03794a94e9d6364736f6c63430008000033",
  "immutableReferences": {},
  "source": "// SPDX-License-Identifier: UNLICENSED\r\n\r\npragma solidity ^0.8.0;\r\n\r\ncontract Charity {\r\n\r\n    // These are events to be emitted when specific actions are completed\r\n    event AdminAdded(address admin);\r\n    event AdminRemoved(address admin);\r\n    event OrganizationVerified(address organization);\r\n    event OrganizationRevoked(address organization);\r\n    event CampaignStarted(bytes32 campaignId, address donor);\r\n    event CampaignEnded(bytes32 campaignId);\r\n    event TokenRedeemed(bytes32 campaignId, bytes32 tokenId);\r\n    event DonationMade(address donor, address receiver, uint256 amount);\r\n\r\n    uint256 public campaignCount;\r\n\r\n    struct Token {\r\n        bytes32 tokenId;\r\n        bool redeemed;\r\n        uint256 price;\r\n    }\r\n\r\n    struct Campaign {\r\n        string title;\r\n        string image;\r\n        string description;\r\n        uint256 deadline; //timestamp format\r\n        bool isLive;\r\n        address donor;\r\n        address receiver;\r\n        uint256 balance;\r\n        uint256 deposit;\r\n        Token[] tokens;\r\n    }\r\n\r\n    // keep track of verified organizations\r\n    mapping(address => bool) public verifiedOrganizations;\r\n\r\n    // keep track of created campaigns using a unique ID\r\n    mapping(bytes32 => Campaign) public campaigns;\r\n\r\n    // only admin can verify or revoke organizations\r\n    function verifyOrganization(address _organization) public {\r\n        verifiedOrganizations[_organization] = true;\r\n        emit OrganizationVerified(_organization);\r\n    }\r\n\r\n    function revokeOrganization(address _organization) public {\r\n        verifiedOrganizations[_organization] = false;\r\n        emit OrganizationRevoked(_organization);\r\n    }\r\n\r\n    // modifier to check if an organization is verified\r\n    modifier onlyVerifiedOrganization() {\r\n        require(verifiedOrganizations[msg.sender], \"Only verified organizations can perform this action\");\r\n        _;\r\n    }\r\n\r\n    // generate a unique ID for a campaign from its title, description and creator address\r\n    function generateCampaignId(\r\n        address _donor, \r\n        address _receiver,\r\n        string calldata _title, \r\n        string calldata _description\r\n    ) private pure returns(bytes32) {\r\n        return keccak256(abi.encodePacked(_title, _description, _donor, _receiver));\r\n    }\r\n\r\n    // generate a unique ID for a token from its campaign ID and index\r\n    function generateTokenId(\r\n        bytes32 _campaignId, \r\n        uint256 _index\r\n    ) private pure returns(bytes32) {\r\n        return keccak256(abi.encodePacked(_campaignId, _index));\r\n    }\r\n\r\n    // create a new campaign for a verified organization \r\n    function startCampaign(\r\n        string calldata _title, \r\n        string calldata _description, \r\n        string calldata _imgUrl, \r\n        uint256 _deadline,\r\n        uint256 _tokenCounts,\r\n        address _receiver\r\n    ) public payable onlyVerifiedOrganization { \r\n        // generate a unique ID for the campaign\r\n        bytes32 campaignId = generateCampaignId(msg.sender, _receiver, _title, _description);\r\n\r\n        // get a reference to the campaign with the generated Id\r\n        Campaign storage campaign = campaigns[campaignId];\r\n\r\n        // require that the campaign is not live yet.\r\n        require(!campaign.isLive, \"Campaign already exists\");\r\n\r\n        // set the campaign properties\r\n        campaign.title = _title;\r\n        campaign.description = _description;\r\n        campaign.image = _imgUrl;\r\n        campaign.deadline = _deadline;\r\n        campaign.isLive = true;\r\n        campaign.donor = msg.sender;\r\n        campaign.receiver = _receiver;\r\n        campaign.deposit = msg.value;\r\n\r\n        // create tokens for the campaign\r\n        for (uint i = 0; i < _tokenCounts; i++) {\r\n            bytes32 tokenId = generateTokenId(campaignId, i);\r\n            campaign.tokens.push(Token(tokenId, false, msg.value / _tokenCounts));\r\n        }\r\n\r\n        // increment the campaign count\r\n        campaignCount++;\r\n\r\n        // emit the CampaignStarted event\r\n        emit CampaignStarted(campaignId, msg.sender);\r\n    }\r\n\r\n    // end the campaign of a verified organization \r\n    function endCampaign(bytes32 campaignId) public onlyVerifiedOrganization {\r\n\r\n        // get a reference to the campaign with the given ID\r\n        Campaign storage campaign = campaigns[campaignId];\r\n\r\n        // require that the campaign is live\r\n        require(campaign.isLive, \"Campaign does not exist\");\r\n\r\n        // require that campaign deadline has passed\r\n        require(block.timestamp > campaign.deadline, \"Campaign deadline has not passed\");\r\n\r\n        // require that sender is the donor of the campaign\r\n        require(msg.sender == campaign.donor, \"Only the donor can end the campaign\");\r\n\r\n        // end the campaign\r\n        campaign.isLive = false;\r\n\r\n        emit CampaignEnded(campaignId);\r\n\r\n        // transfer the balance to the receiver\r\n        payable(campaign.receiver).transfer(campaign.balance);\r\n        payable(msg.sender).transfer(campaign.deposit - campaign.balance);\r\n\r\n        emit DonationMade(msg.sender, campaign.receiver, campaign.balance);\r\n    }\r\n\r\n    // returns the details of an active campaign given the campaignId\r\n    function getCampaign(bytes32 campaignId) public view returns(Campaign memory) {\r\n        \r\n        // retrieve the campaign with the given ID\r\n        Campaign storage campaign = campaigns[campaignId];\r\n\r\n        // require that the campaign is live\r\n        require(campaign.isLive, \"Campaign does not exist\");\r\n\r\n        return campaign;\r\n    }\r\n\r\n    // allow users to reedem the tokens they bought\r\n    function redeemToken(bytes32 campaignId, bytes32 tokenId) public {\r\n\r\n        // retrieve the campaign with the given ID\r\n        Campaign storage campaign = campaigns[campaignId];\r\n\r\n        // require that the campaign is live\r\n        require(campaign.isLive, \"Campaign does not exist\");\r\n\r\n        // require that the deadline has not passed\r\n        require(block.timestamp < campaign.deadline, \"Cannot redeem. Campaign deadline has passed\");\r\n        \r\n        for (uint i = 0; i < campaign.tokens.length; i++) {\r\n            if (campaign.tokens[i].tokenId == tokenId) {\r\n\r\n                // require that the token has not been redeemed yet\r\n                require(!campaign.tokens[i].redeemed, \"Token already redeemed\");\r\n\r\n                // mark the token as redeemed and change the owner to the receiver\r\n                campaign.tokens[i].redeemed = true;\r\n                campaign.balance += campaign.tokens[i].price;\r\n\r\n                // emit the TokenRedeemed event\r\n                emit TokenRedeemed(campaignId, tokenId);\r\n\r\n                break;\r\n            }\r\n        }\r\n    }\r\n}",
  "sourcePath": "C:\\Users\\Matteo\\Documents\\GitHub\\charitychain\\contracts\\Charity.sol",
  "compiler": {
    "name": "solc",
    "version": "0.8.0+commit.c7dfd78e.Emscripten.clang"
  },
  "schemaVersion": "3.4.16",
  "updatedAt": "2024-07-09T11:26:42.197Z",
  "devdoc": {
    "kind": "dev",
    "methods": {},
    "version": 1
  },
  "userdoc": {
    "kind": "user",
    "methods": {},
    "version": 1
  }
}