{
  "contractName": "Charity",
  "abi": [
    {
      "anonymous": false,
      "inputs": [
        {
          "indexed": false,
          "internalType": "address",
          "name": "admin",
          "type": "address"
        }
      ],
      "name": "AdminAdded",
      "type": "event"
    },
    {
      "anonymous": false,
      "inputs": [
        {
          "indexed": false,
          "internalType": "address",
          "name": "admin",
          "type": "address"
        }
      ],
      "name": "AdminRemoved",
      "type": "event"
    },
    {
      "anonymous": false,
      "inputs": [
        {
          "indexed": false,
          "internalType": "bytes32",
          "name": "campaignId",
          "type": "bytes32"
        }
      ],
      "name": "CampaignEnded",
      "type": "event"
    },
    {
      "anonymous": false,
      "inputs": [
        {
          "indexed": false,
          "internalType": "bytes32",
          "name": "campaignId",
          "type": "bytes32"
        },
        {
          "indexed": false,
          "internalType": "address",
          "name": "donor",
          "type": "address"
        }
      ],
      "name": "CampaignStarted",
      "type": "event"
    },
    {
      "anonymous": false,
      "inputs": [
        {
          "indexed": false,
          "internalType": "bytes32",
          "name": "campaignId",
          "type": "bytes32"
        },
        {
          "indexed": false,
          "internalType": "address",
          "name": "donor",
          "type": "address"
        },
        {
          "indexed": false,
          "internalType": "uint256",
          "name": "refund",
          "type": "uint256"
        },
        {
          "indexed": false,
          "internalType": "address",
          "name": "beneficiary",
          "type": "address"
        },
        {
          "indexed": false,
          "internalType": "uint256",
          "name": "donation",
          "type": "uint256"
        }
      ],
      "name": "DonationMade",
      "type": "event"
    },
    {
      "anonymous": false,
      "inputs": [
        {
          "indexed": false,
          "internalType": "address",
          "name": "organization",
          "type": "address"
        },
        {
          "indexed": false,
          "internalType": "bool",
          "name": "status",
          "type": "bool"
        }
      ],
      "name": "OrganizationRevoked",
      "type": "event"
    },
    {
      "anonymous": false,
      "inputs": [
        {
          "indexed": false,
          "internalType": "address",
          "name": "organization",
          "type": "address"
        },
        {
          "indexed": false,
          "internalType": "bool",
          "name": "status",
          "type": "bool"
        }
      ],
      "name": "OrganizationVerified",
      "type": "event"
    },
    {
      "anonymous": false,
      "inputs": [
        {
          "indexed": false,
          "internalType": "bytes32",
          "name": "campaignId",
          "type": "bytes32"
        },
        {
          "indexed": false,
          "internalType": "bytes32",
          "name": "tokenId",
          "type": "bytes32"
        }
      ],
      "name": "TokenRedeemed",
      "type": "event"
    },
    {
      "inputs": [],
      "name": "campaignCount",
      "outputs": [
        {
          "internalType": "uint256",
          "name": "",
          "type": "uint256"
        }
      ],
      "stateMutability": "view",
      "type": "function",
      "constant": true
    },
    {
      "inputs": [
        {
          "internalType": "bytes32",
          "name": "",
          "type": "bytes32"
        }
      ],
      "name": "campaigns",
      "outputs": [
        {
          "internalType": "string",
          "name": "title",
          "type": "string"
        },
        {
          "internalType": "string",
          "name": "image",
          "type": "string"
        },
        {
          "internalType": "string",
          "name": "description",
          "type": "string"
        },
        {
          "internalType": "uint256",
          "name": "deadline",
          "type": "uint256"
        },
        {
          "internalType": "bool",
          "name": "isLive",
          "type": "bool"
        },
        {
          "internalType": "address",
          "name": "donor",
          "type": "address"
        },
        {
          "internalType": "address",
          "name": "beneficiary",
          "type": "address"
        },
        {
          "internalType": "uint256",
          "name": "balance",
          "type": "uint256"
        },
        {
          "internalType": "uint256",
          "name": "deposit",
          "type": "uint256"
        }
      ],
      "stateMutability": "view",
      "type": "function",
      "constant": true
    },
    {
      "inputs": [
        {
          "internalType": "address",
          "name": "",
          "type": "address"
        }
      ],
      "name": "verifiedOrganizations",
      "outputs": [
        {
          "internalType": "bool",
          "name": "",
          "type": "bool"
        }
      ],
      "stateMutability": "view",
      "type": "function",
      "constant": true
    },
    {
      "inputs": [
        {
          "internalType": "address",
          "name": "_organization",
          "type": "address"
        }
      ],
      "name": "verifyOrganization",
      "outputs": [],
      "stateMutability": "nonpayable",
      "type": "function"
    },
    {
      "inputs": [
        {
          "internalType": "address",
          "name": "_organization",
          "type": "address"
        }
      ],
      "name": "isOrganizationVerified",
      "outputs": [
        {
          "internalType": "bool",
          "name": "",
          "type": "bool"
        }
      ],
      "stateMutability": "view",
      "type": "function",
      "constant": true
    },
    {
      "inputs": [
        {
          "internalType": "address",
          "name": "_organization",
          "type": "address"
        }
      ],
      "name": "revokeOrganization",
      "outputs": [],
      "stateMutability": "nonpayable",
      "type": "function"
    },
    {
      "inputs": [
        {
          "internalType": "string",
          "name": "_title",
          "type": "string"
        },
        {
          "internalType": "string",
          "name": "_description",
          "type": "string"
        },
        {
          "internalType": "string",
          "name": "_imgUrl",
          "type": "string"
        },
        {
          "internalType": "uint256",
          "name": "_deadline",
          "type": "uint256"
        },
        {
          "internalType": "uint256",
          "name": "_tokenCounts",
          "type": "uint256"
        },
        {
          "internalType": "address",
          "name": "_beneficiary",
          "type": "address"
        }
      ],
      "name": "startCampaign",
      "outputs": [],
      "stateMutability": "payable",
      "type": "function",
      "payable": true
    },
    {
      "inputs": [
        {
          "components": [
            {
              "internalType": "string",
              "name": "title",
              "type": "string"
            },
            {
              "internalType": "string",
              "name": "image",
              "type": "string"
            },
            {
              "internalType": "string",
              "name": "description",
              "type": "string"
            },
            {
              "internalType": "uint256",
              "name": "deadline",
              "type": "uint256"
            },
            {
              "internalType": "bool",
              "name": "isLive",
              "type": "bool"
            },
            {
              "internalType": "address",
              "name": "donor",
              "type": "address"
            },
            {
              "internalType": "address",
              "name": "beneficiary",
              "type": "address"
            },
            {
              "internalType": "uint256",
              "name": "balance",
              "type": "uint256"
            },
            {
              "internalType": "uint256",
              "name": "deposit",
              "type": "uint256"
            },
            {
              "components": [
                {
                  "internalType": "bytes32",
                  "name": "tokenId",
                  "type": "bytes32"
                },
                {
                  "internalType": "bool",
                  "name": "redeemed",
                  "type": "bool"
                },
                {
                  "internalType": "uint256",
                  "name": "price",
                  "type": "uint256"
                }
              ],
              "internalType": "struct Charity.Token[]",
              "name": "tokens",
              "type": "tuple[]"
            }
          ],
          "internalType": "struct Charity.Campaign",
          "name": "campaign",
          "type": "tuple"
        },
        {
          "internalType": "address",
          "name": "sender",
          "type": "address"
        }
      ],
      "name": "getDonorMessage",
      "outputs": [
        {
          "internalType": "string",
          "name": "",
          "type": "string"
        }
      ],
      "stateMutability": "pure",
      "type": "function",
      "constant": true
    },
    {
      "inputs": [
        {
          "internalType": "bytes32",
          "name": "campaignId",
          "type": "bytes32"
        }
      ],
      "name": "getCampaignTokens",
      "outputs": [
        {
          "components": [
            {
              "internalType": "bytes32",
              "name": "tokenId",
              "type": "bytes32"
            },
            {
              "internalType": "bool",
              "name": "redeemed",
              "type": "bool"
            },
            {
              "internalType": "uint256",
              "name": "price",
              "type": "uint256"
            }
          ],
          "internalType": "struct Charity.Token[]",
          "name": "",
          "type": "tuple[]"
        }
      ],
      "stateMutability": "view",
      "type": "function",
      "constant": true
    },
    {
      "inputs": [
        {
          "internalType": "bytes32",
          "name": "campaignId",
          "type": "bytes32"
        }
      ],
      "name": "endCampaign",
      "outputs": [],
      "stateMutability": "nonpayable",
      "type": "function"
    },
    {
      "inputs": [
        {
          "internalType": "bytes32",
          "name": "campaignId",
          "type": "bytes32"
        }
      ],
      "name": "getCampaign",
      "outputs": [
        {
          "components": [
            {
              "internalType": "string",
              "name": "title",
              "type": "string"
            },
            {
              "internalType": "string",
              "name": "image",
              "type": "string"
            },
            {
              "internalType": "string",
              "name": "description",
              "type": "string"
            },
            {
              "internalType": "uint256",
              "name": "deadline",
              "type": "uint256"
            },
            {
              "internalType": "bool",
              "name": "isLive",
              "type": "bool"
            },
            {
              "internalType": "address",
              "name": "donor",
              "type": "address"
            },
            {
              "internalType": "address",
              "name": "beneficiary",
              "type": "address"
            },
            {
              "internalType": "uint256",
              "name": "balance",
              "type": "uint256"
            },
            {
              "internalType": "uint256",
              "name": "deposit",
              "type": "uint256"
            },
            {
              "components": [
                {
                  "internalType": "bytes32",
                  "name": "tokenId",
                  "type": "bytes32"
                },
                {
                  "internalType": "bool",
                  "name": "redeemed",
                  "type": "bool"
                },
                {
                  "internalType": "uint256",
                  "name": "price",
                  "type": "uint256"
                }
              ],
              "internalType": "struct Charity.Token[]",
              "name": "tokens",
              "type": "tuple[]"
            }
          ],
          "internalType": "struct Charity.Campaign",
          "name": "",
          "type": "tuple"
        }
      ],
      "stateMutability": "view",
      "type": "function",
      "constant": true
    },
    {
      "inputs": [
        {
          "internalType": "bytes32",
          "name": "campaignId",
          "type": "bytes32"
        },
        {
          "internalType": "bytes32",
          "name": "tokenId",
          "type": "bytes32"
        }
      ],
      "name": "redeemToken",
      "outputs": [],
      "stateMutability": "nonpayable",
      "type": "function"
    }
  ],
  "bytecode": "0x608060405234801561001057600080fd5b5061201b806100206000396000f3fe6080604052600436106100a75760003560e01c80639dfd6a76116100645780639dfd6a76146101795780639eca2f1e14610199578063a713f3b4146101ce578063aa684ecb146101fb578063cabe045214610228578063d77e765514610255576100a7565b8063069445dd146100ac57806319822471146100e257806329777bc6146101045780635c1449e1146101245780636d567acd146101375780637274e30d14610157575b600080fd5b3480156100b857600080fd5b506100cc6100c73660046116dd565b610275565b6040516100d99190611ad7565b60405180910390f35b3480156100ee57600080fd5b506101026100fd3660046116dd565b61028a565b005b34801561011057600080fd5b5061010261011f3660046116fe565b6102e5565b610102610132366004611737565b6104d9565b34801561014357600080fd5b506101026101523660046116dd565b6106be565b34801561016357600080fd5b5061016c610714565b6040516100d99190611ae2565b34801561018557600080fd5b506100cc6101943660046116dd565b61071a565b3480156101a557600080fd5b506101b96101b43660046116fe565b61073c565b6040516100d999989796959493929190611b43565b3480156101da57600080fd5b506101ee6101e93660046116fe565b61092c565b6040516100d99190611ac4565b34801561020757600080fd5b5061021b6102163660046117ef565b610c4a565b6040516100d99190611b30565b34801561023457600080fd5b506102486102433660046116fe565b610caf565b6040516100d99190611dbe565b34801561026157600080fd5b50610102610270366004611716565b610f83565b60016020526000908152604090205460ff1681565b6001600160a01b038116600090815260016020526040808220805460ff19169055517fce95388be1d9fbeaf8f033d8ebe1650ab29d81b34ee27b1893cea56daea5148c916102da91849190611aa9565b60405180910390a150565b3360009081526001602052604090205460ff1661031d5760405162461bcd60e51b815260040161031490611cf1565b60405180910390fd5b6000818152600260205260409020600481015460ff1661034f5760405162461bcd60e51b815260040161031490611bc0565b806003015442116103725760405162461bcd60e51b815260040161031490611c2e565b600481015461010090046001600160a01b031633146103a35760405162461bcd60e51b815260040161031490611c63565b60048101805460ff191690556040517fb64ddd282ae633ff337429b65565eb00d3aeea1fa5209bed297f8adadb58ac5c906103df908490611ae2565b60405180910390a1600581015460068201546040516001600160a01b039092169181156108fc0291906000818181858888f19350505050158015610427573d6000803e3d6000fd5b50336001600160a01b03166108fc826006015483600701546104499190611f20565b6040518115909202916000818181858888f19350505050158015610471573d6000803e3d6000fd5b507f6a59ea40e2eec7fc41cab2dcdb8e9dbed4a214f8b0565106080af5606d9a180e8233836006015484600701546104a99190611f20565b600585015460068601546040516104cd959493926001600160a01b03169190611b02565b60405180910390a15050565b60006104e933838c8c8c8c61116b565b600081815260026020526040902060048101549192509060ff16156105205760405162461bcd60e51b815260040161031490611bf7565b6001600160a01b03831660009081526001602052604090205460ff166105585760405162461bcd60e51b815260040161031490611d74565b610563818c8c611438565b50610572600282018a8a611438565b50610581600182018888611438565b5060038101859055600481018054600160ff1990911617610100600160a81b03191661010033021790556005810180546001600160a01b0319166001600160a01b03851617905534600782015560005b848110156106635760006105e584836111aa565b6040805160608101825282815260006020820152919250600885019190810161060e8934611ee1565b90528154600180820184556000938452602093849020835160039093020191825592820151928101805460ff19169315159390931790925560400151600290910155508061065b81611f9e565b9150506105d1565b5060008054908061067383611f9e565b91905055507fdc0818b72ab921845d16549bba2517251c8478e66922d6feadca523530d9d36582336040516106a9929190611aeb565b60405180910390a15050505050505050505050565b6001600160a01b038116600090815260016020819052604091829020805460ff19168217905590517f3139dd1a6fe945662e2ac0d59ff6d3cd48403f79863e86e03d6a84349adbee56916102da91849190611aa9565b60005481565b6001600160a01b03811660009081526001602052604090205460ff165b919050565b60026020526000908152604090208054819061075790611f63565b80601f016020809104026020016040519081016040528092919081815260200182805461078390611f63565b80156107d05780601f106107a5576101008083540402835291602001916107d0565b820191906000526020600020905b8154815290600101906020018083116107b357829003601f168201915b5050505050908060010180546107e590611f63565b80601f016020809104026020016040519081016040528092919081815260200182805461081190611f63565b801561085e5780601f106108335761010080835404028352916020019161085e565b820191906000526020600020905b81548152906001019060200180831161084157829003601f168201915b50505050509080600201805461087390611f63565b80601f016020809104026020016040519081016040528092919081815260200182805461089f90611f63565b80156108ec5780601f106108c1576101008083540402835291602001916108ec565b820191906000526020600020905b8154815290600101906020018083116108cf57829003601f168201915b50505060038401546004850154600586015460068701546007909701549596929560ff831695506001600160a01b03610100909304831694509116919089565b60606000600260008481526020019081526020016000206040518061014001604052908160008201805461095f90611f63565b80601f016020809104026020016040519081016040528092919081815260200182805461098b90611f63565b80156109d85780601f106109ad576101008083540402835291602001916109d8565b820191906000526020600020905b8154815290600101906020018083116109bb57829003601f168201915b505050505081526020016001820180546109f190611f63565b80601f0160208091040260200160405190810160405280929190818152602001828054610a1d90611f63565b8015610a6a5780601f10610a3f57610100808354040283529160200191610a6a565b820191906000526020600020905b815481529060010190602001808311610a4d57829003601f168201915b50505050508152602001600282018054610a8390611f63565b80601f0160208091040260200160405190810160405280929190818152602001828054610aaf90611f63565b8015610afc5780601f10610ad157610100808354040283529160200191610afc565b820191906000526020600020905b815481529060010190602001808311610adf57829003601f168201915b50505091835250506003820154602080830191909152600483015460ff811615156040808501919091526101009091046001600160a01b0390811660608501526005850154166080840152600684015460a0840152600784015460c084015260088401805482518185028101850190935280835260e090940193919290919060009084015b82821015610bd257600084815260209081902060408051606081018252600386029092018054835260018082015460ff16151584860152600290910154918301919091529083529092019101610b81565b505050508152505090508060800151610bfd5760405162461bcd60e51b815260040161031490611bc0565b8060a001516001600160a01b0316336001600160a01b031614610c208233610c4a565b90610c3e5760405162461bcd60e51b81526004016103149190611b30565b50610120015192915050565b60606000610c5b8460a001516111dd565b604051602001610c6b9190611a57565b604051602081830303815290604052905080610c86846111dd565b604051602001610c97929190611a12565b60405160208183030381529060405291505092915050565b610cb76114bc565b60008281526002602052604080822081516101408101909252805482908290610cdf90611f63565b80601f0160208091040260200160405190810160405280929190818152602001828054610d0b90611f63565b8015610d585780601f10610d2d57610100808354040283529160200191610d58565b820191906000526020600020905b815481529060010190602001808311610d3b57829003601f168201915b50505050508152602001600182018054610d7190611f63565b80601f0160208091040260200160405190810160405280929190818152602001828054610d9d90611f63565b8015610dea5780601f10610dbf57610100808354040283529160200191610dea565b820191906000526020600020905b815481529060010190602001808311610dcd57829003601f168201915b50505050508152602001600282018054610e0390611f63565b80601f0160208091040260200160405190810160405280929190818152602001828054610e2f90611f63565b8015610e7c5780601f10610e5157610100808354040283529160200191610e7c565b820191906000526020600020905b815481529060010190602001808311610e5f57829003601f168201915b50505091835250506003820154602080830191909152600483015460ff811615156040808501919091526101009091046001600160a01b0390811660608501526005850154166080840152600684015460a0840152600784015460c084015260088401805482518185028101850190935280835260e090940193919290919060009084015b82821015610f5257600084815260209081902060408051606081018252600386029092018054835260018082015460ff16151584860152600290910154918301919091529083529092019101610f01565b505050508152505090508060800151610f7d5760405162461bcd60e51b815260040161031490611bc0565b92915050565b6000828152600260205260409020600481015460ff16610fb55760405162461bcd60e51b815260040161031490611bc0565b80600301544210610fd85760405162461bcd60e51b815260040161031490611ca6565b60005b6008820154811015611165578282600801828154811061100b57634e487b7160e01b600052603260045260246000fd5b90600052602060002090600302016000015414156111535781600801818154811061104657634e487b7160e01b600052603260045260246000fd5b600091825260209091206001600390920201015460ff161561107a5760405162461bcd60e51b815260040161031490611d44565b600182600801828154811061109f57634e487b7160e01b600052603260045260246000fd5b906000526020600020906003020160010160006101000a81548160ff0219169083151502179055508160080181815481106110ea57634e487b7160e01b600052603260045260246000fd5b90600052602060002090600302016002015482600601600082825461110f9190611ec9565b90915550506040517f9a9e23de1b93767b4da5983db1c8560ac499487355c698b0349423dfd24827089061114690869086906119c0565b60405180910390a1611165565b8061115d81611f9e565b915050610fdb565b50505050565b6000848484848a8a604051602001611188969594939291906119ce565b6040516020818303038152906040528051906020012090509695505050505050565b600082826040516020016111bf9291906119c0565b60405160208183030381529060405280519060200120905092915050565b604080518082018252601081526f181899199a1a9b1b9c1cb0b131b232b360811b60208201528151603380825260608281019094526001600160a01b0385169291600091602082018180368337019050509050600360fc1b8160008151811061125657634e487b7160e01b600052603260045260246000fd5b60200101906001600160f81b031916908160001a905350600f60fb1b8160018151811061129357634e487b7160e01b600052603260045260246000fd5b60200101906001600160f81b031916908160001a90535060005b601481101561142f57826004856112c584600c611ec9565b602081106112e357634e487b7160e01b600052603260045260246000fd5b1a60f81b6001600160f81b031916901c60f81c60ff168151811061131757634e487b7160e01b600052603260045260246000fd5b01602001516001600160f81b03191682611332836002611f01565b61133d906002611ec9565b8151811061135b57634e487b7160e01b600052603260045260246000fd5b60200101906001600160f81b031916908160001a905350828461137f83600c611ec9565b6020811061139d57634e487b7160e01b600052603260045260246000fd5b825191901a600f169081106113c257634e487b7160e01b600052603260045260246000fd5b01602001516001600160f81b031916826113dd836002611f01565b6113e8906003611ec9565b8151811061140657634e487b7160e01b600052603260045260246000fd5b60200101906001600160f81b031916908160001a9053508061142781611f9e565b9150506112ad565b50949350505050565b82805461144490611f63565b90600052602060002090601f01602090048101928261146657600085556114ac565b82601f1061147f5782800160ff198235161785556114ac565b828001600101855582156114ac579182015b828111156114ac578235825591602001919060010190611491565b506114b8929150611523565b5090565b6040518061014001604052806060815260200160608152602001606081526020016000815260200160001515815260200160006001600160a01b0316815260200160006001600160a01b031681526020016000815260200160008152602001606081525090565b5b808211156114b85760008155600101611524565b80356001600160a01b038116811461073757600080fd5b600082601f83011261155f578081fd5b8135602067ffffffffffffffff8083111561157c5761157c611fcf565b6115898283850201611e9f565b838152828101908684016060808702890186018a10156115a7578788fd5b875b8781101561160c5781838c0312156115bf578889fd5b6040805183810181811089821117156115da576115da611fcf565b8252843581526115eb89860161161b565b818a01528482013591810191909152855293860193918101916001016115a9565b50919998505050505050505050565b8035801515811461073757600080fd5b60008083601f84011261163c578182fd5b50813567ffffffffffffffff811115611653578182fd5b60208301915083602082850101111561166b57600080fd5b9250929050565b600082601f830112611682578081fd5b813567ffffffffffffffff81111561169c5761169c611fcf565b6116af601f8201601f1916602001611e9f565b8181528460208386010111156116c3578283fd5b816020850160208301379081016020019190915292915050565b6000602082840312156116ee578081fd5b6116f782611538565b9392505050565b60006020828403121561170f578081fd5b5035919050565b60008060408385031215611728578081fd5b50508035926020909101359150565b600080600080600080600080600060c08a8c031215611754578485fd5b893567ffffffffffffffff8082111561176b578687fd5b6117778d838e0161162b565b909b50995060208c013591508082111561178f578687fd5b61179b8d838e0161162b565b909950975060408c01359150808211156117b3578687fd5b506117c08c828d0161162b565b90965094505060608a0135925060808a013591506117e060a08b01611538565b90509295985092959850929598565b60008060408385031215611801578182fd5b823567ffffffffffffffff80821115611818578384fd5b818501915061014080838803121561182e578485fd5b61183781611e9f565b9050823582811115611847578586fd5b61185388828601611672565b825250602083013582811115611867578586fd5b61187388828601611672565b60208301525060408301358281111561188a578586fd5b61189688828601611672565b604083015250606083013560608201526118b26080840161161b565b60808201526118c360a08401611538565b60a08201526118d460c08401611538565b60c082015260e083013560e08201526101008084013581830152506101208084013583811115611902578687fd5b61190e8982870161154f565b82840152505080945050505061192660208401611538565b90509250929050565b6001600160a01b03169052565b6000815180845260208085019450808401835b838110156119835781518051885283810151151584890152604090810151908801526060909601959082019060010161194f565b509495945050505050565b15159052565b600081518084526119ac816020860160208601611f37565b601f01601f19169290920160200192915050565b918252602082015260400190565b600086888337868201818152858782376bffffffffffffffffffffffff19606095861b8116969091019586529290931b909116601484015250506028019392505050565b60008351611a24818460208801611f37565b690171029b2b73232b91d160b51b9083019081528351611a4b81600a840160208801611f37565b01600a01949350505050565b60007f4f6e6c792074686520646f6e6f722063616e20766965772074686520746f6b65825263037399d160e51b60208301528251611a9c816024850160208701611f37565b9190910160240192915050565b6001600160a01b039290921682521515602082015260400190565b6000602082526116f7602083018461193c565b901515815260200190565b90815260200190565b9182526001600160a01b0316602082015260400190565b9485526001600160a01b03938416602086015260408501929092529091166060830152608082015260a00190565b6000602082526116f76020830184611994565b6000610120808352611b578184018d611994565b90508281036020840152611b6b818c611994565b90508281036040840152611b7f818b611994565b6060840199909952505094151560808601526001600160a01b0393841660a08601529190921660c084015260e0830191909152610100909101529392505050565b60208082526017908201527f43616d706169676e20646f6573206e6f74206578697374000000000000000000604082015260600190565b60208082526017908201527f43616d706169676e20616c726561647920657869737473000000000000000000604082015260600190565b6020808252818101527f43616d706169676e20646561646c696e6520686173206e6f7420706173736564604082015260600190565b60208082526023908201527f4f6e6c792074686520646f6e6f722063616e20656e64207468652063616d706160408201526234b3b760e91b606082015260800190565b6020808252602b908201527f43616e6e6f742072656465656d2e2043616d706169676e20646561646c696e6560408201526a081a185cc81c185cdcd95960aa1b606082015260800190565b60208082526033908201527f4f6e6c79207665726966696564206f7267616e697a6174696f6e732063616e206040820152723832b93337b936903a3434b99030b1ba34b7b760691b606082015260800190565b602080825260169082015275151bdad95b88185b1c9958591e481c995919595b595960521b604082015260600190565b6020808252602a908201527f62656e6566696369617279206973206e6f742061207665726966696564206f7260408201526933b0b734bd30ba34b7b760b11b606082015260800190565b6000602082528251610140806020850152611ddd610160850183611994565b91506020850151601f1980868503016040870152611dfb8483611994565b93506040870151915080868503016060870152611e188483611994565b93506060870151608087015260808701519150611e3860a087018361198e565b60a08701519150611e4c60c087018361192f565b60c08701519150611e6060e087018361192f565b60e08701516101008781019190915287015161012080880191909152870151868503909101838701529050611e95838261193c565b9695505050505050565b60405181810167ffffffffffffffff81118282101715611ec157611ec1611fcf565b604052919050565b60008219821115611edc57611edc611fb9565b500190565b600082611efc57634e487b7160e01b81526012600452602481fd5b500490565b6000816000190483118215151615611f1b57611f1b611fb9565b500290565b600082821015611f3257611f32611fb9565b500390565b60005b83811015611f52578181015183820152602001611f3a565b838111156111655750506000910152565b600281046001821680611f7757607f821691505b60208210811415611f9857634e487b7160e01b600052602260045260246000fd5b50919050565b6000600019821415611fb257611fb2611fb9565b5060010190565b634e487b7160e01b600052601160045260246000fd5b634e487b7160e01b600052604160045260246000fdfea2646970667358221220aca39466c4549224e6e6a14676f50bfd108888d0e66fd32cbaa2f7f28a6e5bb764736f6c63430008000033",
  "immutableReferences": {},
  "source": "// SPDX-License-Identifier: UNLICENSED\r\n\r\npragma solidity ^0.8.0;\r\n\r\ncontract Charity {\r\n\r\n    // These are events to be emitted when specific actions are completed\r\n    event AdminAdded(address admin);\r\n    event AdminRemoved(address admin);\r\n    event OrganizationVerified(address organization, bool status);\r\n    event OrganizationRevoked(address organization, bool status);\r\n    event CampaignStarted(bytes32 campaignId, address donor);\r\n    event CampaignEnded(bytes32 campaignId);\r\n    event TokenRedeemed(bytes32 campaignId, bytes32 tokenId);\r\n    event DonationMade(bytes32 campaignId, address donor, uint256 refund, address beneficiary, uint256 donation);\r\n\r\n    uint256 public campaignCount;\r\n\r\n    struct Token {\r\n        bytes32 tokenId;\r\n        bool redeemed;\r\n        uint256 price;\r\n    }\r\n\r\n    struct Campaign {\r\n        string title;\r\n        string image;\r\n        string description;\r\n        uint256 deadline; //timestamp format\r\n        bool isLive;\r\n        address donor;\r\n        address beneficiary;\r\n        uint256 balance;\r\n        uint256 deposit;\r\n        Token[] tokens;\r\n    }\r\n\r\n    // keep track of verified organizations\r\n    mapping(address => bool) public verifiedOrganizations;\r\n\r\n    // keep track of created campaigns using a unique ID\r\n    mapping(bytes32 => Campaign) public campaigns;\r\n\r\n    // only admin can verify or revoke organizations\r\n    function verifyOrganization(address _organization) public {\r\n        verifiedOrganizations[_organization] = true;\r\n        emit OrganizationVerified(_organization, true);\r\n    }\r\n\r\n    function isOrganizationVerified(address _organization) public view returns (bool) {\r\n        return verifiedOrganizations[_organization];\r\n    }\r\n\r\n    function revokeOrganization(address _organization) public {\r\n        verifiedOrganizations[_organization] = false;\r\n        emit OrganizationRevoked(_organization, false);\r\n    }\r\n\r\n    // modifier to check if an organization is verified\r\n    modifier onlyVerifiedOrganization() {\r\n        require(verifiedOrganizations[msg.sender], \"Only verified organizations can perform this action\");\r\n        _;\r\n    }\r\n\r\n    // generate a unique ID for a campaign from its title, description and creator address\r\n    function generateCampaignId(\r\n        address _donor, \r\n        address _beneficiary,\r\n        string calldata _title, \r\n        string calldata _description\r\n    ) private pure returns(bytes32) {\r\n        return keccak256(abi.encodePacked(_title, _description, _donor, _beneficiary));\r\n    }\r\n\r\n    // generate a unique ID for a token from its campaign ID and index\r\n    function generateTokenId(\r\n        bytes32 _campaignId, \r\n        uint256 _index\r\n    ) private pure returns(bytes32) {\r\n        return keccak256(abi.encodePacked(_campaignId, _index));\r\n    }\r\n\r\n    // create a new campaign for a verified organization \r\n    function startCampaign(\r\n        string calldata _title, \r\n        string calldata _description, \r\n        string calldata _imgUrl, \r\n        uint256 _deadline,\r\n        uint256 _tokenCounts,\r\n        address _beneficiary\r\n    ) public payable { \r\n        // generate a unique ID for the campaign\r\n        bytes32 campaignId = generateCampaignId(msg.sender, _beneficiary, _title, _description);\r\n\r\n        // get a reference to the campaign with the generated Id\r\n        Campaign storage campaign = campaigns[campaignId];\r\n\r\n        // require that the campaign is not live yet.\r\n        require(!campaign.isLive, \"Campaign already exists\");\r\n\r\n        // require that the beneficiary is a verified organization\r\n        require(verifiedOrganizations[_beneficiary], \"beneficiary is not a verified organization\");\r\n\r\n        // set the campaign properties\r\n        campaign.title = _title;\r\n        campaign.description = _description;\r\n        campaign.image = _imgUrl;\r\n        campaign.deadline = _deadline;\r\n        campaign.isLive = true;\r\n        campaign.donor = msg.sender;\r\n        campaign.beneficiary = _beneficiary;\r\n        campaign.deposit = msg.value;\r\n\r\n        // create tokens for the campaign\r\n        for (uint i = 0; i < _tokenCounts; i++) {\r\n            bytes32 tokenId = generateTokenId(campaignId, i);\r\n            campaign.tokens.push(Token(tokenId, false, msg.value / _tokenCounts));\r\n        }\r\n\r\n        // increment the campaign count\r\n        campaignCount++;\r\n\r\n        // emit the CampaignStarted event\r\n        emit CampaignStarted(campaignId, msg.sender);\r\n    }\r\n\r\n    function addressToString(address _address) internal pure returns (string memory) {\r\n        bytes32 value = bytes32(uint256(uint160(_address)));\r\n        bytes memory alphabet = \"0123456789abcdef\";\r\n\r\n        bytes memory str = new bytes(51);\r\n        str[0] = '0';\r\n        str[1] = 'x';\r\n        for (uint256 i = 0; i < 20; i++) {\r\n            str[2 + i * 2] = alphabet[uint8(value[i + 12] >> 4)];\r\n            str[3 + i * 2] = alphabet[uint8(value[i + 12] & 0x0f)];\r\n        }\r\n        return string(str);\r\n    }\r\n\r\n    function getDonorMessage(Campaign memory campaign, address sender) public pure returns (string memory) {\r\n        string memory temp = string(abi.encodePacked(\"Only the donor can view the tokens: \", addressToString(campaign.donor)));\r\n        return string(abi.encodePacked(temp, \". Sender: \", addressToString(sender)));\r\n    }\r\n\r\n    // get the tokens of a campaign\r\n    function getCampaignTokens(bytes32 campaignId) public view returns(Token[] memory) {\r\n\r\n        Campaign memory campaign = campaigns[campaignId];\r\n\r\n        // require that the campaign is live\r\n        require(campaign.isLive, \"Campaign does not exist\");\r\n\r\n        // require that the sender is the donor of the campaign\r\n        require(msg.sender == campaign.donor, getDonorMessage(campaign, msg.sender));\r\n\r\n        return campaign.tokens;\r\n    }\r\n\r\n    // end the campaign of a verified organization \r\n    function endCampaign(bytes32 campaignId) public onlyVerifiedOrganization {\r\n\r\n        // get a reference to the campaign with the given ID\r\n        Campaign storage campaign = campaigns[campaignId];\r\n\r\n        // require that the campaign is live\r\n        require(campaign.isLive, \"Campaign does not exist\");\r\n\r\n        // require that campaign deadline has passed\r\n        require(block.timestamp > campaign.deadline, \"Campaign deadline has not passed\");\r\n\r\n        // require that sender is the donor of the campaign\r\n        require(msg.sender == campaign.donor, \"Only the donor can end the campaign\");\r\n\r\n        // end the campaign\r\n        campaign.isLive = false;\r\n\r\n        emit CampaignEnded(campaignId);\r\n\r\n        // transfer the balance to the beneficiary\r\n        payable(campaign.beneficiary).transfer(campaign.balance);\r\n        payable(msg.sender).transfer(campaign.deposit - campaign.balance);\r\n\r\n        emit DonationMade(campaignId, msg.sender, campaign.deposit - campaign.balance, campaign.beneficiary, campaign.balance);\r\n    }\r\n\r\n    // returns the details of an active campaign given the campaignId\r\n    function getCampaign(bytes32 campaignId) public view returns(Campaign memory) {\r\n        \r\n        // retrieve a copy of the campaign with the given ID\r\n        Campaign memory campaign = campaigns[campaignId];\r\n\r\n        // require that the campaign is live\r\n        require(campaign.isLive, \"Campaign does not exist\");\r\n\r\n        // remove the token array from the campaign before returning it\r\n        // delete campaign.tokens;\r\n\r\n        return campaign;\r\n    }\r\n\r\n    // allow users to reedem the tokens they bought\r\n    function redeemToken(bytes32 campaignId, bytes32 tokenId) public {\r\n\r\n        // retrieve the campaign with the given ID\r\n        Campaign storage campaign = campaigns[campaignId];\r\n\r\n        // require that the campaign is live\r\n        require(campaign.isLive, \"Campaign does not exist\");\r\n\r\n        // require that the deadline has not passed\r\n        require(block.timestamp < campaign.deadline, \"Cannot redeem. Campaign deadline has passed\");\r\n        \r\n        for (uint i = 0; i < campaign.tokens.length; i++) {\r\n            if (campaign.tokens[i].tokenId == tokenId) {\r\n\r\n                // require that the token has not been redeemed yet\r\n                require(!campaign.tokens[i].redeemed, \"Token already redeemed\");\r\n\r\n                // mark the token as redeemed and change the owner to the beneficiary\r\n                campaign.tokens[i].redeemed = true;\r\n                campaign.balance += campaign.tokens[i].price;\r\n\r\n                // emit the TokenRedeemed event\r\n                emit TokenRedeemed(campaignId, tokenId);\r\n\r\n                break;\r\n            }\r\n        }\r\n    }\r\n}",
  "sourcePath": "C:\\Users\\Simone\\Documents\\Uni\\Blockchain\\charitychain\\contracts\\Charity.sol",
  "compiler": {
    "name": "solc",
    "version": "0.8.0+commit.c7dfd78e.Emscripten.clang"
  },
  "schemaVersion": "3.4.14",
  "updatedAt": "2024-07-13T10:21:04.044Z",
  "networkType": "ethereum",
  "devdoc": {
    "kind": "dev",
    "methods": {},
    "version": 1
  },
  "userdoc": {
    "kind": "user",
    "methods": {},
    "version": 1
  }
}