{
  "contractName": "Charity",
  "abi": [
    {
      "anonymous": false,
      "inputs": [
        {
          "indexed": false,
          "internalType": "address",
          "name": "admin",
          "type": "address"
        }
      ],
      "name": "AdminAdded",
      "type": "event"
    },
    {
      "anonymous": false,
      "inputs": [
        {
          "indexed": false,
          "internalType": "address",
          "name": "admin",
          "type": "address"
        }
      ],
      "name": "AdminRemoved",
      "type": "event"
    },
    {
      "anonymous": false,
      "inputs": [
        {
          "indexed": false,
          "internalType": "bytes32",
          "name": "campaignId",
          "type": "bytes32"
        }
      ],
      "name": "CampaignEnded",
      "type": "event"
    },
    {
      "anonymous": false,
      "inputs": [
        {
          "indexed": false,
          "internalType": "bytes32",
          "name": "campaignId",
          "type": "bytes32"
        },
        {
          "indexed": false,
          "internalType": "address",
          "name": "donor",
          "type": "address"
        }
      ],
      "name": "CampaignStarted",
      "type": "event"
    },
    {
      "anonymous": false,
      "inputs": [
        {
          "indexed": false,
          "internalType": "bytes32",
          "name": "campaignId",
          "type": "bytes32"
        },
        {
          "indexed": false,
          "internalType": "address",
          "name": "donor",
          "type": "address"
        },
        {
          "indexed": false,
          "internalType": "uint256",
          "name": "refund",
          "type": "uint256"
        },
        {
          "indexed": false,
          "internalType": "address",
          "name": "beneficiary",
          "type": "address"
        },
        {
          "indexed": false,
          "internalType": "uint256",
          "name": "donation",
          "type": "uint256"
        }
      ],
      "name": "DonationMade",
      "type": "event"
    },
    {
      "anonymous": false,
      "inputs": [
        {
          "indexed": false,
          "internalType": "address",
          "name": "organization",
          "type": "address"
        },
        {
          "indexed": false,
          "internalType": "bool",
          "name": "status",
          "type": "bool"
        }
      ],
      "name": "OrganizationRevoked",
      "type": "event"
    },
    {
      "anonymous": false,
      "inputs": [
        {
          "indexed": false,
          "internalType": "address",
          "name": "organization",
          "type": "address"
        },
        {
          "indexed": false,
          "internalType": "bool",
          "name": "status",
          "type": "bool"
        }
      ],
      "name": "OrganizationVerified",
      "type": "event"
    },
    {
      "anonymous": false,
      "inputs": [
        {
          "indexed": false,
          "internalType": "bytes32",
          "name": "campaignId",
          "type": "bytes32"
        },
        {
          "indexed": false,
          "internalType": "bytes32",
          "name": "tokenId",
          "type": "bytes32"
        }
      ],
      "name": "TokenRedeemed",
      "type": "event"
    },
    {
      "inputs": [],
      "name": "campaignCount",
      "outputs": [
        {
          "internalType": "uint256",
          "name": "",
          "type": "uint256"
        }
      ],
      "stateMutability": "view",
      "type": "function",
      "constant": true
    },
    {
      "inputs": [
        {
          "internalType": "bytes32",
          "name": "",
          "type": "bytes32"
        }
      ],
      "name": "campaigns",
      "outputs": [
        {
          "internalType": "string",
          "name": "title",
          "type": "string"
        },
        {
          "internalType": "string",
          "name": "image",
          "type": "string"
        },
        {
          "internalType": "string",
          "name": "description",
          "type": "string"
        },
        {
          "internalType": "uint256",
          "name": "deadline",
          "type": "uint256"
        },
        {
          "internalType": "bool",
          "name": "isLive",
          "type": "bool"
        },
        {
          "internalType": "address",
          "name": "donor",
          "type": "address"
        },
        {
          "internalType": "address",
          "name": "beneficiary",
          "type": "address"
        },
        {
          "internalType": "uint256",
          "name": "balance",
          "type": "uint256"
        },
        {
          "internalType": "uint256",
          "name": "deposit",
          "type": "uint256"
        }
      ],
      "stateMutability": "view",
      "type": "function",
      "constant": true
    },
    {
      "inputs": [
        {
          "internalType": "address",
          "name": "",
          "type": "address"
        }
      ],
      "name": "verifiedOrganizations",
      "outputs": [
        {
          "internalType": "bool",
          "name": "",
          "type": "bool"
        }
      ],
      "stateMutability": "view",
      "type": "function",
      "constant": true
    },
    {
      "inputs": [
        {
          "internalType": "address",
          "name": "_organization",
          "type": "address"
        }
      ],
      "name": "verifyOrganization",
      "outputs": [],
      "stateMutability": "nonpayable",
      "type": "function"
    },
    {
      "inputs": [
        {
          "internalType": "address",
          "name": "_organization",
          "type": "address"
        }
      ],
      "name": "isOrganizationVerified",
      "outputs": [
        {
          "internalType": "bool",
          "name": "",
          "type": "bool"
        }
      ],
      "stateMutability": "view",
      "type": "function",
      "constant": true
    },
    {
      "inputs": [
        {
          "internalType": "address",
          "name": "_organization",
          "type": "address"
        }
      ],
      "name": "revokeOrganization",
      "outputs": [],
      "stateMutability": "nonpayable",
      "type": "function"
    },
    {
      "inputs": [
        {
          "internalType": "string",
          "name": "_title",
          "type": "string"
        },
        {
          "internalType": "string",
          "name": "_description",
          "type": "string"
        },
        {
          "internalType": "string",
          "name": "_imgUrl",
          "type": "string"
        },
        {
          "internalType": "uint256",
          "name": "_deadline",
          "type": "uint256"
        },
        {
          "internalType": "uint256",
          "name": "_tokenCounts",
          "type": "uint256"
        },
        {
          "internalType": "address",
          "name": "_beneficiary",
          "type": "address"
        }
      ],
      "name": "startCampaign",
      "outputs": [],
      "stateMutability": "payable",
      "type": "function",
      "payable": true
    },
    {
      "inputs": [
        {
          "internalType": "bytes32",
          "name": "campaignId",
          "type": "bytes32"
        }
      ],
      "name": "getCampaignTokens",
      "outputs": [
        {
          "components": [
            {
              "internalType": "bytes32",
              "name": "tokenId",
              "type": "bytes32"
            },
            {
              "internalType": "bool",
              "name": "redeemed",
              "type": "bool"
            },
            {
              "internalType": "uint256",
              "name": "price",
              "type": "uint256"
            }
          ],
          "internalType": "struct Charity.Token[]",
          "name": "",
          "type": "tuple[]"
        }
      ],
      "stateMutability": "view",
      "type": "function",
      "constant": true
    },
    {
      "inputs": [
        {
          "internalType": "bytes32",
          "name": "campaignId",
          "type": "bytes32"
        }
      ],
      "name": "endCampaign",
      "outputs": [],
      "stateMutability": "nonpayable",
      "type": "function"
    },
    {
      "inputs": [
        {
          "internalType": "bytes32",
          "name": "campaignId",
          "type": "bytes32"
        }
      ],
      "name": "getCampaign",
      "outputs": [
        {
          "components": [
            {
              "internalType": "string",
              "name": "title",
              "type": "string"
            },
            {
              "internalType": "string",
              "name": "image",
              "type": "string"
            },
            {
              "internalType": "string",
              "name": "description",
              "type": "string"
            },
            {
              "internalType": "uint256",
              "name": "deadline",
              "type": "uint256"
            },
            {
              "internalType": "bool",
              "name": "isLive",
              "type": "bool"
            },
            {
              "internalType": "address",
              "name": "donor",
              "type": "address"
            },
            {
              "internalType": "address",
              "name": "beneficiary",
              "type": "address"
            },
            {
              "internalType": "uint256",
              "name": "balance",
              "type": "uint256"
            },
            {
              "internalType": "uint256",
              "name": "deposit",
              "type": "uint256"
            },
            {
              "components": [
                {
                  "internalType": "bytes32",
                  "name": "tokenId",
                  "type": "bytes32"
                },
                {
                  "internalType": "bool",
                  "name": "redeemed",
                  "type": "bool"
                },
                {
                  "internalType": "uint256",
                  "name": "price",
                  "type": "uint256"
                }
              ],
              "internalType": "struct Charity.Token[]",
              "name": "tokens",
              "type": "tuple[]"
            }
          ],
          "internalType": "struct Charity.Campaign",
          "name": "",
          "type": "tuple"
        }
      ],
      "stateMutability": "view",
      "type": "function",
      "constant": true
    },
    {
      "inputs": [
        {
          "internalType": "bytes32",
          "name": "campaignId",
          "type": "bytes32"
        },
        {
          "internalType": "bytes32",
          "name": "tokenId",
          "type": "bytes32"
        }
      ],
      "name": "redeemToken",
      "outputs": [],
      "stateMutability": "nonpayable",
      "type": "function"
    }
  ],
  "bytecode": "0x608060405234801561001057600080fd5b50611a06806100206000396000f3fe60806040526004361061009c5760003560e01c80637274e30d116100645780637274e30d1461014c5780639dfd6a761461016e5780639eca2f1e1461018e578063a713f3b4146101c3578063cabe0452146101f0578063d77e76551461021d5761009c565b8063069445dd146100a157806319822471146100d757806329777bc6146100f95780635c1449e1146101195780636d567acd1461012c575b600080fd5b3480156100ad57600080fd5b506100c16100bc366004611299565b61023d565b6040516100ce919061151e565b60405180910390f35b3480156100e357600080fd5b506100f76100f2366004611299565b610252565b005b34801561010557600080fd5b506100f76101143660046112ba565b6102ad565b6100f76101273660046112f3565b6104a1565b34801561013857600080fd5b506100f7610147366004611299565b610686565b34801561015857600080fd5b506101616106dc565b6040516100ce9190611529565b34801561017a57600080fd5b506100c1610189366004611299565b6106e2565b34801561019a57600080fd5b506101ae6101a93660046112ba565b610704565b6040516100ce99989796959493929190611577565b3480156101cf57600080fd5b506101e36101de3660046112ba565b6108f4565b6040516100ce91906114d5565b3480156101fc57600080fd5b5061021061020b3660046112ba565b610c05565b6040516100ce9190611834565b34801561022957600080fd5b506100f76102383660046112d2565b610ee1565b60016020526000908152604090205460ff1681565b6001600160a01b038116600090815260016020526040808220805460ff19169055517fce95388be1d9fbeaf8f033d8ebe1650ab29d81b34ee27b1893cea56daea5148c916102a2918491906114ba565b60405180910390a150565b3360009081526001602052604090205460ff166102e55760405162461bcd60e51b81526004016102dc90611725565b60405180910390fd5b6000818152600260205260409020600481015460ff166103175760405162461bcd60e51b81526004016102dc906115f4565b8060030154421161033a5760405162461bcd60e51b81526004016102dc90611662565b600481015461010090046001600160a01b0316331461036b5760405162461bcd60e51b81526004016102dc90611697565b60048101805460ff191690556040517fb64ddd282ae633ff337429b65565eb00d3aeea1fa5209bed297f8adadb58ac5c906103a7908490611529565b60405180910390a1600581015460068201546040516001600160a01b039092169181156108fc0291906000818181858888f193505050501580156103ef573d6000803e3d6000fd5b50336001600160a01b03166108fc82600601548360070154610411919061194d565b6040518115909202916000818181858888f19350505050158015610439573d6000803e3d6000fd5b507f6a59ea40e2eec7fc41cab2dcdb8e9dbed4a214f8b0565106080af5606d9a180e823383600601548460070154610471919061194d565b60058501546006860154604051610495959493926001600160a01b03169190611549565b60405180910390a15050565b60006104b133838c8c8c8c6110c9565b600081815260026020526040902060048101549192509060ff16156104e85760405162461bcd60e51b81526004016102dc9061162b565b6001600160a01b03831660009081526001602052604090205460ff166105205760405162461bcd60e51b81526004016102dc906117ea565b61052b818c8c61113b565b5061053a600282018a8a61113b565b5061054960018201888861113b565b5060038101859055600481018054600160ff1990911617610100600160a81b03191661010033021790556005810180546001600160a01b0319166001600160a01b03851617905534600782015560005b8481101561062b5760006105ad8483611108565b604080516060810182528281526000602082015291925060088501919081016105d6893461192d565b90528154600180820184556000938452602093849020835160039093020191825592820151928101805460ff1916931515939093179092556040015160029091015550806106238161199f565b915050610599565b5060008054908061063b8361199f565b91905055507fdc0818b72ab921845d16549bba2517251c8478e66922d6feadca523530d9d3658233604051610671929190611532565b60405180910390a15050505050505050505050565b6001600160a01b038116600090815260016020819052604091829020805460ff19168217905590517f3139dd1a6fe945662e2ac0d59ff6d3cd48403f79863e86e03d6a84349adbee56916102a2918491906114ba565b60005481565b6001600160a01b03811660009081526001602052604090205460ff165b919050565b60026020526000908152604090208054819061071f90611964565b80601f016020809104026020016040519081016040528092919081815260200182805461074b90611964565b80156107985780601f1061076d57610100808354040283529160200191610798565b820191906000526020600020905b81548152906001019060200180831161077b57829003601f168201915b5050505050908060010180546107ad90611964565b80601f01602080910402602001604051908101604052809291908181526020018280546107d990611964565b80156108265780601f106107fb57610100808354040283529160200191610826565b820191906000526020600020905b81548152906001019060200180831161080957829003601f168201915b50505050509080600201805461083b90611964565b80601f016020809104026020016040519081016040528092919081815260200182805461086790611964565b80156108b45780601f10610889576101008083540402835291602001916108b4565b820191906000526020600020905b81548152906001019060200180831161089757829003601f168201915b50505060038401546004850154600586015460068701546007909701549596929560ff831695506001600160a01b03610100909304831694509116919089565b60606000600260008481526020019081526020016000206040518061014001604052908160008201805461092790611964565b80601f016020809104026020016040519081016040528092919081815260200182805461095390611964565b80156109a05780601f10610975576101008083540402835291602001916109a0565b820191906000526020600020905b81548152906001019060200180831161098357829003601f168201915b505050505081526020016001820180546109b990611964565b80601f01602080910402602001604051908101604052809291908181526020018280546109e590611964565b8015610a325780601f10610a0757610100808354040283529160200191610a32565b820191906000526020600020905b815481529060010190602001808311610a1557829003601f168201915b50505050508152602001600282018054610a4b90611964565b80601f0160208091040260200160405190810160405280929190818152602001828054610a7790611964565b8015610ac45780601f10610a9957610100808354040283529160200191610ac4565b820191906000526020600020905b815481529060010190602001808311610aa757829003601f168201915b50505091835250506003820154602080830191909152600483015460ff811615156040808501919091526101009091046001600160a01b0390811660608501526005850154166080840152600684015460a0840152600784015460c084015260088401805482518185028101850190935280835260e090940193919290919060009084015b82821015610b9a57600084815260209081902060408051606081018252600386029092018054835260018082015460ff16151584860152600290910154918301919091529083529092019101610b49565b505050508152505090508060800151610bc55760405162461bcd60e51b81526004016102dc906115f4565b8060a001516001600160a01b0316336001600160a01b031614610bfa5760405162461bcd60e51b81526004016102dc906117a8565b610120015192915050565b610c0d6111bf565b60008281526002602052604080822081516101408101909252805482908290610c3590611964565b80601f0160208091040260200160405190810160405280929190818152602001828054610c6190611964565b8015610cae5780601f10610c8357610100808354040283529160200191610cae565b820191906000526020600020905b815481529060010190602001808311610c9157829003601f168201915b50505050508152602001600182018054610cc790611964565b80601f0160208091040260200160405190810160405280929190818152602001828054610cf390611964565b8015610d405780601f10610d1557610100808354040283529160200191610d40565b820191906000526020600020905b815481529060010190602001808311610d2357829003601f168201915b50505050508152602001600282018054610d5990611964565b80601f0160208091040260200160405190810160405280929190818152602001828054610d8590611964565b8015610dd25780601f10610da757610100808354040283529160200191610dd2565b820191906000526020600020905b815481529060010190602001808311610db557829003601f168201915b50505091835250506003820154602080830191909152600483015460ff811615156040808501919091526101009091046001600160a01b0390811660608501526005850154166080840152600684015460a0840152600784015460c084015260088401805482518185028101850190935280835260e090940193919290919060009084015b82821015610ea857600084815260209081902060408051606081018252600386029092018054835260018082015460ff16151584860152600290910154918301919091529083529092019101610e57565b505050508152505090508060800151610ed35760405162461bcd60e51b81526004016102dc906115f4565b606061012082015292915050565b6000828152600260205260409020600481015460ff16610f135760405162461bcd60e51b81526004016102dc906115f4565b80600301544210610f365760405162461bcd60e51b81526004016102dc906116da565b60005b60088201548110156110c35782826008018281548110610f6957634e487b7160e01b600052603260045260246000fd5b90600052602060002090600302016000015414156110b157816008018181548110610fa457634e487b7160e01b600052603260045260246000fd5b600091825260209091206001600390920201015460ff1615610fd85760405162461bcd60e51b81526004016102dc90611778565b6001826008018281548110610ffd57634e487b7160e01b600052603260045260246000fd5b906000526020600020906003020160010160006101000a81548160ff02191690831515021790555081600801818154811061104857634e487b7160e01b600052603260045260246000fd5b90600052602060002090600302016002015482600601600082825461106d9190611915565b90915550506040517f9a9e23de1b93767b4da5983db1c8560ac499487355c698b0349423dfd2482708906110a49086908690611468565b60405180910390a16110c3565b806110bb8161199f565b915050610f39565b50505050565b6000848484848a8a6040516020016110e696959493929190611476565b6040516020818303038152906040528051906020012090509695505050505050565b6000828260405160200161111d929190611468565b60405160208183030381529060405280519060200120905092915050565b82805461114790611964565b90600052602060002090601f01602090048101928261116957600085556111af565b82601f106111825782800160ff198235161785556111af565b828001600101855582156111af579182015b828111156111af578235825591602001919060010190611194565b506111bb929150611226565b5090565b6040518061014001604052806060815260200160608152602001606081526020016000815260200160001515815260200160006001600160a01b0316815260200160006001600160a01b031681526020016000815260200160008152602001606081525090565b5b808211156111bb5760008155600101611227565b80356001600160a01b03811681146106ff57600080fd5b60008083601f840112611263578182fd5b50813567ffffffffffffffff81111561127a578182fd5b60208301915083602082850101111561129257600080fd5b9250929050565b6000602082840312156112aa578081fd5b6112b38261123b565b9392505050565b6000602082840312156112cb578081fd5b5035919050565b600080604083850312156112e4578081fd5b50508035926020909101359150565b600080600080600080600080600060c08a8c031215611310578485fd5b893567ffffffffffffffff80821115611327578687fd5b6113338d838e01611252565b909b50995060208c013591508082111561134b578687fd5b6113578d838e01611252565b909950975060408c013591508082111561136f578687fd5b5061137c8c828d01611252565b90965094505060608a0135925060808a0135915061139c60a08b0161123b565b90509295985092959850929598565b805182526020808201511515908301526040908101519082015260600190565b6001600160a01b03169052565b6000815180845260208085019450808401835b8381101561140c576113fe8783516113ab565b9650908201906001016113eb565b509495945050505050565b15159052565b60008151808452815b8181101561144257602081850181015186830182015201611426565b818111156114535782602083870101525b50601f01601f19169290920160200192915050565b918252602082015260400190565b600086888337868201818152858782376bffffffffffffffffffffffff19606095861b8116969091019586529290931b909116601484015250506028019392505050565b6001600160a01b039290921682521515602082015260400190565b6020808252825182820181905260009190848201906040850190845b81811015611512576115048385516113ab565b9385019392506001016114f1565b50909695505050505050565b901515815260200190565b90815260200190565b9182526001600160a01b0316602082015260400190565b9485526001600160a01b03938416602086015260408501929092529091166060830152608082015260a00190565b600061012080835261158b8184018d61141d565b9050828103602084015261159f818c61141d565b905082810360408401526115b3818b61141d565b6060840199909952505094151560808601526001600160a01b0393841660a08601529190921660c084015260e0830191909152610100909101529392505050565b60208082526017908201527f43616d706169676e20646f6573206e6f74206578697374000000000000000000604082015260600190565b60208082526017908201527f43616d706169676e20616c726561647920657869737473000000000000000000604082015260600190565b6020808252818101527f43616d706169676e20646561646c696e6520686173206e6f7420706173736564604082015260600190565b60208082526023908201527f4f6e6c792074686520646f6e6f722063616e20656e64207468652063616d706160408201526234b3b760e91b606082015260800190565b6020808252602b908201527f43616e6e6f742072656465656d2e2043616d706169676e20646561646c696e6560408201526a081a185cc81c185cdcd95960aa1b606082015260800190565b60208082526033908201527f4f6e6c79207665726966696564206f7267616e697a6174696f6e732063616e206040820152723832b93337b936903a3434b99030b1ba34b7b760691b606082015260800190565b602080825260169082015275151bdad95b88185b1c9958591e481c995919595b595960521b604082015260600190565b60208082526022908201527f4f6e6c792074686520646f6e6f722063616e20766965772074686520746f6b656040820152616e7360f01b606082015260800190565b6020808252602a908201527f62656e6566696369617279206973206e6f742061207665726966696564206f7260408201526933b0b734bd30ba34b7b760b11b606082015260800190565b600060208252825161014080602085015261185361016085018361141d565b91506020850151601f1980868503016040870152611871848361141d565b9350604087015191508086850301606087015261188e848361141d565b935060608701516080870152608087015191506118ae60a0870183611417565b60a087015191506118c260c08701836113cb565b60c087015191506118d660e08701836113cb565b60e0870151610100878101919091528701516101208088019190915287015186850390910183870152905061190b83826113d8565b9695505050505050565b60008219821115611928576119286119ba565b500190565b60008261194857634e487b7160e01b81526012600452602481fd5b500490565b60008282101561195f5761195f6119ba565b500390565b60028104600182168061197857607f821691505b6020821081141561199957634e487b7160e01b600052602260045260246000fd5b50919050565b60006000198214156119b3576119b36119ba565b5060010190565b634e487b7160e01b600052601160045260246000fdfea2646970667358221220c908d43e79bcc0f764411ca89326bf33324b325c6af5f43e817b54136725b15564736f6c63430008000033",
  "immutableReferences": {},
  "source": "// SPDX-License-Identifier: UNLICENSED\r\n\r\npragma solidity ^0.8.0;\r\n\r\ncontract Charity {\r\n\r\n    // These are events to be emitted when specific actions are completed\r\n    event AdminAdded(address admin);\r\n    event AdminRemoved(address admin);\r\n    event OrganizationVerified(address organization, bool status);\r\n    event OrganizationRevoked(address organization, bool status);\r\n    event CampaignStarted(bytes32 campaignId, address donor);\r\n    event CampaignEnded(bytes32 campaignId);\r\n    event TokenRedeemed(bytes32 campaignId, bytes32 tokenId);\r\n    event DonationMade(bytes32 campaignId, address donor, uint256 refund, address beneficiary, uint256 donation);\r\n\r\n    uint256 public campaignCount;\r\n\r\n    struct Token {\r\n        bytes32 tokenId;\r\n        bool redeemed;\r\n        uint256 price;\r\n    }\r\n\r\n    struct Campaign {\r\n        string title;\r\n        string image;\r\n        string description;\r\n        uint256 deadline; //timestamp format\r\n        bool isLive;\r\n        address donor;\r\n        address beneficiary;\r\n        uint256 balance;\r\n        uint256 deposit;\r\n        Token[] tokens;\r\n    }\r\n\r\n    // keep track of verified organizations\r\n    mapping(address => bool) public verifiedOrganizations;\r\n\r\n    // keep track of created campaigns using a unique ID\r\n    mapping(bytes32 => Campaign) public campaigns;\r\n\r\n    // only admin can verify or revoke organizations\r\n    function verifyOrganization(address _organization) public {\r\n        verifiedOrganizations[_organization] = true;\r\n        emit OrganizationVerified(_organization, true);\r\n    }\r\n\r\n    function isOrganizationVerified(address _organization) public view returns (bool) {\r\n        return verifiedOrganizations[_organization];\r\n    }\r\n\r\n    function revokeOrganization(address _organization) public {\r\n        verifiedOrganizations[_organization] = false;\r\n        emit OrganizationRevoked(_organization, false);\r\n    }\r\n\r\n    // modifier to check if an organization is verified\r\n    modifier onlyVerifiedOrganization() {\r\n        require(verifiedOrganizations[msg.sender], \"Only verified organizations can perform this action\");\r\n        _;\r\n    }\r\n\r\n    // generate a unique ID for a campaign from its title, description and creator address\r\n    function generateCampaignId(\r\n        address _donor, \r\n        address _beneficiary,\r\n        string calldata _title, \r\n        string calldata _description\r\n    ) private pure returns(bytes32) {\r\n        return keccak256(abi.encodePacked(_title, _description, _donor, _beneficiary));\r\n    }\r\n\r\n    // generate a unique ID for a token from its campaign ID and index\r\n    function generateTokenId(\r\n        bytes32 _campaignId, \r\n        uint256 _index\r\n    ) private pure returns(bytes32) {\r\n        return keccak256(abi.encodePacked(_campaignId, _index));\r\n    }\r\n\r\n    // create a new campaign for a verified organization \r\n    function startCampaign(\r\n        string calldata _title, \r\n        string calldata _description, \r\n        string calldata _imgUrl, \r\n        uint256 _deadline,\r\n        uint256 _tokenCounts,\r\n        address _beneficiary\r\n    ) public payable { \r\n        // generate a unique ID for the campaign\r\n        bytes32 campaignId = generateCampaignId(msg.sender, _beneficiary, _title, _description);\r\n\r\n        // get a reference to the campaign with the generated Id\r\n        Campaign storage campaign = campaigns[campaignId];\r\n\r\n        // require that the campaign is not live yet.\r\n        require(!campaign.isLive, \"Campaign already exists\");\r\n\r\n        // require that the beneficiary is a verified organization\r\n        require(verifiedOrganizations[_beneficiary], \"beneficiary is not a verified organization\");\r\n\r\n        // set the campaign properties\r\n        campaign.title = _title;\r\n        campaign.description = _description;\r\n        campaign.image = _imgUrl;\r\n        campaign.deadline = _deadline;\r\n        campaign.isLive = true;\r\n        campaign.donor = msg.sender;\r\n        campaign.beneficiary = _beneficiary;\r\n        campaign.deposit = msg.value;\r\n\r\n        // create tokens for the campaign\r\n        for (uint i = 0; i < _tokenCounts; i++) {\r\n            bytes32 tokenId = generateTokenId(campaignId, i);\r\n            campaign.tokens.push(Token(tokenId, false, msg.value / _tokenCounts));\r\n        }\r\n\r\n        // increment the campaign count\r\n        campaignCount++;\r\n\r\n        // emit the CampaignStarted event\r\n        emit CampaignStarted(campaignId, msg.sender);\r\n    }\r\n\r\n    // get the tokens of a campaign\r\n    function getCampaignTokens(bytes32 campaignId) public view returns(Token[] memory) {\r\n\r\n        Campaign memory campaign = campaigns[campaignId];\r\n\r\n        // require that the campaign is live\r\n        require(campaign.isLive, \"Campaign does not exist\");\r\n\r\n        // require that the sender is the donor of the campaign\r\n        require(msg.sender == campaign.donor, \"Only the donor can view the tokens\");\r\n\r\n        return campaign.tokens;\r\n    }\r\n\r\n    // end the campaign of a verified organization \r\n    function endCampaign(bytes32 campaignId) public onlyVerifiedOrganization {\r\n\r\n        // get a reference to the campaign with the given ID\r\n        Campaign storage campaign = campaigns[campaignId];\r\n\r\n        // require that the campaign is live\r\n        require(campaign.isLive, \"Campaign does not exist\");\r\n\r\n        // require that campaign deadline has passed\r\n        require(block.timestamp > campaign.deadline, \"Campaign deadline has not passed\");\r\n\r\n        // require that sender is the donor of the campaign\r\n        require(msg.sender == campaign.donor, \"Only the donor can end the campaign\");\r\n\r\n        // end the campaign\r\n        campaign.isLive = false;\r\n\r\n        emit CampaignEnded(campaignId);\r\n\r\n        // transfer the balance to the beneficiary\r\n        payable(campaign.beneficiary).transfer(campaign.balance);\r\n        payable(msg.sender).transfer(campaign.deposit - campaign.balance);\r\n\r\n        emit DonationMade(campaignId, msg.sender, campaign.deposit - campaign.balance, campaign.beneficiary, campaign.balance);\r\n    }\r\n\r\n    // returns the details of an active campaign given the campaignId\r\n    function getCampaign(bytes32 campaignId) public view returns(Campaign memory) {\r\n        \r\n        // retrieve a copy of the campaign with the given ID\r\n        Campaign memory campaign = campaigns[campaignId];\r\n\r\n        // require that the campaign is live\r\n        require(campaign.isLive, \"Campaign does not exist\");\r\n\r\n        // remove the token array from the campaign before returning it\r\n        delete campaign.tokens;\r\n\r\n        return campaign;\r\n    }\r\n\r\n    // allow users to reedem the tokens they bought\r\n    function redeemToken(bytes32 campaignId, bytes32 tokenId) public {\r\n\r\n        // retrieve the campaign with the given ID\r\n        Campaign storage campaign = campaigns[campaignId];\r\n\r\n        // require that the campaign is live\r\n        require(campaign.isLive, \"Campaign does not exist\");\r\n\r\n        // require that the deadline has not passed\r\n        require(block.timestamp < campaign.deadline, \"Cannot redeem. Campaign deadline has passed\");\r\n        \r\n        for (uint i = 0; i < campaign.tokens.length; i++) {\r\n            if (campaign.tokens[i].tokenId == tokenId) {\r\n\r\n                // require that the token has not been redeemed yet\r\n                require(!campaign.tokens[i].redeemed, \"Token already redeemed\");\r\n\r\n                // mark the token as redeemed and change the owner to the beneficiary\r\n                campaign.tokens[i].redeemed = true;\r\n                campaign.balance += campaign.tokens[i].price;\r\n\r\n                // emit the TokenRedeemed event\r\n                emit TokenRedeemed(campaignId, tokenId);\r\n\r\n                break;\r\n            }\r\n        }\r\n    }\r\n}",
  "sourcePath": "C:\\Users\\Matteo\\Documents\\GitHub\\charitychain\\contracts\\Charity.sol",
  "compiler": {
    "name": "solc",
    "version": "0.8.0+commit.c7dfd78e.Emscripten.clang"
  },
  "schemaVersion": "3.4.16",
  "updatedAt": "2024-07-12T10:49:33.178Z",
  "networkType": "ethereum",
  "devdoc": {
    "kind": "dev",
    "methods": {},
    "version": 1
  },
  "userdoc": {
    "kind": "user",
    "methods": {},
    "version": 1
  }
}