{
  "contractName": "Charity",
  "abi": [
    {
      "inputs": [],
      "stateMutability": "nonpayable",
      "type": "constructor"
    },
    {
      "anonymous": false,
      "inputs": [
        {
          "indexed": false,
          "internalType": "bytes32",
          "name": "campaignId",
          "type": "bytes32"
        },
        {
          "indexed": false,
          "internalType": "address",
          "name": "donor",
          "type": "address"
        }
      ],
      "name": "CampaignStarted",
      "type": "event"
    },
    {
      "anonymous": false,
      "inputs": [
        {
          "indexed": false,
          "internalType": "bytes32",
          "name": "campaignId",
          "type": "bytes32"
        },
        {
          "indexed": false,
          "internalType": "address",
          "name": "beneficiary",
          "type": "address"
        },
        {
          "indexed": false,
          "internalType": "uint256",
          "name": "amount",
          "type": "uint256"
        }
      ],
      "name": "DonationClaimed",
      "type": "event"
    },
    {
      "anonymous": false,
      "inputs": [
        {
          "indexed": false,
          "internalType": "address",
          "name": "organization",
          "type": "address"
        },
        {
          "indexed": false,
          "internalType": "bool",
          "name": "status",
          "type": "bool"
        }
      ],
      "name": "OrganizationRevoked",
      "type": "event"
    },
    {
      "anonymous": false,
      "inputs": [
        {
          "indexed": false,
          "internalType": "address",
          "name": "organization",
          "type": "address"
        },
        {
          "indexed": false,
          "internalType": "bool",
          "name": "status",
          "type": "bool"
        }
      ],
      "name": "OrganizationVerified",
      "type": "event"
    },
    {
      "anonymous": false,
      "inputs": [
        {
          "indexed": false,
          "internalType": "bytes32",
          "name": "campaignId",
          "type": "bytes32"
        },
        {
          "indexed": false,
          "internalType": "address",
          "name": "donor",
          "type": "address"
        },
        {
          "indexed": false,
          "internalType": "uint256",
          "name": "amount",
          "type": "uint256"
        }
      ],
      "name": "RefundClaimed",
      "type": "event"
    },
    {
      "anonymous": false,
      "inputs": [
        {
          "indexed": false,
          "internalType": "bytes32",
          "name": "campaignId",
          "type": "bytes32"
        },
        {
          "indexed": false,
          "internalType": "bytes32",
          "name": "tokenId",
          "type": "bytes32"
        }
      ],
      "name": "TokenRedeemed",
      "type": "event"
    },
    {
      "inputs": [
        {
          "internalType": "bytes32",
          "name": "",
          "type": "bytes32"
        }
      ],
      "name": "campaigns",
      "outputs": [
        {
          "internalType": "string",
          "name": "title",
          "type": "string"
        },
        {
          "internalType": "string",
          "name": "description",
          "type": "string"
        },
        {
          "internalType": "uint256",
          "name": "deadline",
          "type": "uint256"
        },
        {
          "internalType": "bool",
          "name": "exists",
          "type": "bool"
        },
        {
          "internalType": "address payable",
          "name": "donor",
          "type": "address"
        },
        {
          "internalType": "address payable",
          "name": "beneficiary",
          "type": "address"
        },
        {
          "internalType": "uint256",
          "name": "balance",
          "type": "uint256"
        },
        {
          "internalType": "uint256",
          "name": "refund",
          "type": "uint256"
        },
        {
          "internalType": "uint256",
          "name": "deposit",
          "type": "uint256"
        }
      ],
      "stateMutability": "view",
      "type": "function",
      "constant": true
    },
    {
      "inputs": [
        {
          "internalType": "uint256",
          "name": "",
          "type": "uint256"
        }
      ],
      "name": "campaignsIds",
      "outputs": [
        {
          "internalType": "bytes32",
          "name": "",
          "type": "bytes32"
        }
      ],
      "stateMutability": "view",
      "type": "function",
      "constant": true
    },
    {
      "inputs": [
        {
          "internalType": "address",
          "name": "",
          "type": "address"
        }
      ],
      "name": "verifiedOrganizations",
      "outputs": [
        {
          "internalType": "bool",
          "name": "",
          "type": "bool"
        }
      ],
      "stateMutability": "view",
      "type": "function",
      "constant": true
    },
    {
      "inputs": [
        {
          "internalType": "address",
          "name": "_organization",
          "type": "address"
        }
      ],
      "name": "verifyOrganization",
      "outputs": [],
      "stateMutability": "nonpayable",
      "type": "function"
    },
    {
      "inputs": [
        {
          "internalType": "address",
          "name": "_organization",
          "type": "address"
        }
      ],
      "name": "revokeOrganization",
      "outputs": [],
      "stateMutability": "nonpayable",
      "type": "function"
    },
    {
      "inputs": [
        {
          "internalType": "address",
          "name": "_organization",
          "type": "address"
        }
      ],
      "name": "isOrganizationVerified",
      "outputs": [
        {
          "internalType": "bool",
          "name": "",
          "type": "bool"
        }
      ],
      "stateMutability": "view",
      "type": "function",
      "constant": true
    },
    {
      "inputs": [
        {
          "internalType": "string",
          "name": "_title",
          "type": "string"
        },
        {
          "internalType": "string",
          "name": "_description",
          "type": "string"
        },
        {
          "internalType": "uint256",
          "name": "_deadline",
          "type": "uint256"
        },
        {
          "internalType": "uint256",
          "name": "_tokenCounts",
          "type": "uint256"
        },
        {
          "internalType": "address",
          "name": "_beneficiary",
          "type": "address"
        }
      ],
      "name": "startCampaign",
      "outputs": [],
      "stateMutability": "payable",
      "type": "function",
      "payable": true
    },
    {
      "inputs": [
        {
          "internalType": "bytes32",
          "name": "campaignId",
          "type": "bytes32"
        }
      ],
      "name": "getCampaignTokens",
      "outputs": [
        {
          "components": [
            {
              "internalType": "bytes32",
              "name": "tokenId",
              "type": "bytes32"
            },
            {
              "internalType": "bool",
              "name": "redeemed",
              "type": "bool"
            },
            {
              "internalType": "uint256",
              "name": "value",
              "type": "uint256"
            }
          ],
          "internalType": "struct Charity.Token[]",
          "name": "",
          "type": "tuple[]"
        }
      ],
      "stateMutability": "view",
      "type": "function",
      "constant": true
    },
    {
      "inputs": [],
      "name": "getCampaignsIds",
      "outputs": [
        {
          "internalType": "bytes32[]",
          "name": "",
          "type": "bytes32[]"
        }
      ],
      "stateMutability": "view",
      "type": "function",
      "constant": true
    },
    {
      "inputs": [
        {
          "internalType": "bytes32",
          "name": "campaignId",
          "type": "bytes32"
        }
      ],
      "name": "getCampaign",
      "outputs": [
        {
          "components": [
            {
              "internalType": "string",
              "name": "title",
              "type": "string"
            },
            {
              "internalType": "string",
              "name": "description",
              "type": "string"
            },
            {
              "internalType": "uint256",
              "name": "deadline",
              "type": "uint256"
            },
            {
              "internalType": "bool",
              "name": "exists",
              "type": "bool"
            },
            {
              "internalType": "address payable",
              "name": "donor",
              "type": "address"
            },
            {
              "internalType": "address payable",
              "name": "beneficiary",
              "type": "address"
            },
            {
              "internalType": "uint256",
              "name": "balance",
              "type": "uint256"
            },
            {
              "internalType": "uint256",
              "name": "refund",
              "type": "uint256"
            },
            {
              "internalType": "uint256",
              "name": "deposit",
              "type": "uint256"
            },
            {
              "components": [
                {
                  "internalType": "bytes32",
                  "name": "tokenId",
                  "type": "bytes32"
                },
                {
                  "internalType": "bool",
                  "name": "redeemed",
                  "type": "bool"
                },
                {
                  "internalType": "uint256",
                  "name": "value",
                  "type": "uint256"
                }
              ],
              "internalType": "struct Charity.Token[]",
              "name": "tokens",
              "type": "tuple[]"
            }
          ],
          "internalType": "struct Charity.Campaign",
          "name": "",
          "type": "tuple"
        }
      ],
      "stateMutability": "view",
      "type": "function",
      "constant": true
    },
    {
      "inputs": [
        {
          "internalType": "bytes32",
          "name": "campaignId",
          "type": "bytes32"
        }
      ],
      "name": "claimRefund",
      "outputs": [],
      "stateMutability": "nonpayable",
      "type": "function"
    },
    {
      "inputs": [
        {
          "internalType": "bytes32",
          "name": "campaignId",
          "type": "bytes32"
        }
      ],
      "name": "claimDonation",
      "outputs": [],
      "stateMutability": "nonpayable",
      "type": "function"
    },
    {
      "inputs": [
        {
          "internalType": "bytes32",
          "name": "campaignId",
          "type": "bytes32"
        },
        {
          "internalType": "bytes32",
          "name": "tokenId",
          "type": "bytes32"
        }
      ],
      "name": "redeemToken",
      "outputs": [],
      "stateMutability": "nonpayable",
      "type": "function"
    }
  ],
  "bytecode": "0x608060405234801561001057600080fd5b50600080546001600160a01b03191633179055611949806100326000396000f3fe6080604052600436106100c25760003560e01c806371de2ffc1161007f578063a713f3b411610059578063a713f3b414610214578063cabe045214610241578063d77e76551461026e578063e00cbd751461028e576100c2565b806371de2ffc1461019f5780639dfd6a76146101bf5780639eca2f1e146101df576100c2565b8063069445dd146100c757806319822471146100fd57806321e9d13f1461011f5780632404623b1461013f57806326aea95b146101525780636d567acd1461017f575b600080fd5b3480156100d357600080fd5b506100e76100e2366004611210565b6102b0565b6040516100f49190611473565b60405180910390f35b34801561010957600080fd5b5061011d610118366004611210565b6102c5565b005b34801561012b57600080fd5b5061011d61013a366004611231565b610353565b61011d61014d36600461126a565b61047d565b34801561015e57600080fd5b5061017261016d366004611231565b610708565b6040516100f4919061147e565b34801561018b57600080fd5b5061011d61019a366004611210565b610729565b3480156101ab57600080fd5b5061011d6101ba366004611231565b6107ab565b3480156101cb57600080fd5b506100e76101da366004611210565b610908565b3480156101eb57600080fd5b506101ff6101fa366004611231565b61092a565b6040516100f4999897969594939291906114bd565b34801561022057600080fd5b5061023461022f366004611231565b610a93565b6040516100f49190611460565b34801561024d57600080fd5b5061026161025c366004611231565b610b93565b6040516100f4919061176a565b34801561027a57600080fd5b5061011d610289366004611249565b610dc3565b34801561029a57600080fd5b506102a3610fe4565b6040516100f4919061141c565b60026020526000908152604090205460ff1681565b6000546001600160a01b031633146102f85760405162461bcd60e51b81526004016102ef906115d3565b60405180910390fd5b6001600160a01b038116600090815260026020526040808220805460ff19169055517fce95388be1d9fbeaf8f033d8ebe1650ab29d81b34ee27b1893cea56daea5148c9161034891849190611401565b60405180910390a150565b60008181526003602052604090206002015481904210156103865760405162461bcd60e51b81526004016102ef90611648565b600082815260036020526040902060048101546001600160a01b031633146103c05760405162461bcd60e51b81526004016102ef906116f2565b60008160050154116103e45760405162461bcd60e51b81526004016102ef90611619565b600481015460058201546040516001600160a01b039092169181156108fc0291906000818181858888f19350505050158015610424573d6000803e3d6000fd5b5060006005820181905560048201546040517f85cac1294e5890052d53390958c020ee7092f814d1204cee5465b703095f1877926104709287926001600160a01b03909116919061149e565b60405180910390a1505050565b6001600160a01b038116600090815260026020526040902054819060ff166104b75760405162461bcd60e51b81526004016102ef906116a8565b60006104c733848b8b8b8b61103c565b6000818152600360208190526040909120908101549192509060ff16156105005760405162461bcd60e51b81526004016102ef9061159c565b6001805480820182556000919091527fb10e2d527612073b26eecdfd717e6a320cf44b4afac2b0732d9fcbe2b7fa0cf60182905561053f818b8b6110b2565b5061054e6001820189896110b2565b5060028101869055600381018054600160ff1990911617610100600160a81b03191661010033021790556004810180546001600160a01b0319166001600160a01b0386161790553460078201819055600682015560005b6105b0600187611866565b8110156106415760006105c3848361107f565b604080516060810182528281526000602082015291925060088501919081016105ec8a34611852565b90528154600180820184556000938452602093849020835160039093020191825592820151928101805460ff191693151593909317909255604001516002909101555080610639816118b8565b9150506105a5565b508060080160405180606001604052806106678560018a6106629190611866565b61107f565b81526000602082015260400161067d88346118d3565b90528154600180820184556000938452602093849020835160039093020191825592820151928101805460ff191693151593909317909255604090810151600290920191909155517fdc0818b72ab921845d16549bba2517251c8478e66922d6feadca523530d9d365906106f49084903390611487565b60405180910390a150505050505050505050565b6001818154811061071857600080fd5b600091825260209091200154905081565b6000546001600160a01b031633146107535760405162461bcd60e51b81526004016102ef906115d3565b6001600160a01b03811660009081526002602052604090819020805460ff1916600190811790915590517f3139dd1a6fe945662e2ac0d59ff6d3cd48403f79863e86e03d6a84349adbee569161034891849190611401565b60008181526003602052604090206002015481904210156107de5760405162461bcd60e51b81526004016102ef90611648565b60008281526003602081905260409091200154829061010090046001600160a01b0316331461081f5760405162461bcd60e51b81526004016102ef90611556565b6000838152600360205260409020600681015461084e5760405162461bcd60e51b81526004016102ef9061173d565b600381015460068201546040516101009092046001600160a01b0316916108fc82150291906000818181858888f19350505050158015610892573d6000803e3d6000fd5b50600081600601819055507fe950d47bcc1a745a8ef1d8b86486b400a99681910425d126eb1a006d61f341b2848260030160019054906101000a90046001600160a01b0316836005015484600701546108eb9190611866565b6040516108fa9392919061149e565b60405180910390a150505050565b6001600160a01b03811660009081526002602052604090205460ff165b919050565b6003602052600090815260409020805481906109459061187d565b80601f01602080910402602001604051908101604052809291908181526020018280546109719061187d565b80156109be5780601f10610993576101008083540402835291602001916109be565b820191906000526020600020905b8154815290600101906020018083116109a157829003601f168201915b5050505050908060010180546109d39061187d565b80601f01602080910402602001604051908101604052809291908181526020018280546109ff9061187d565b8015610a4c5780601f10610a2157610100808354040283529160200191610a4c565b820191906000526020600020905b815481529060010190602001808311610a2f57829003601f168201915b505050600284015460038501546004860154600587015460068801546007909801549697939660ff841696506001600160a01b036101009094048416955091909216929089565b60008181526003602052604090206002015460609082904210610ac85760405162461bcd60e51b81526004016102ef9061152a565b60008381526003602081905260409091200154839061010090046001600160a01b03163314610b095760405162461bcd60e51b81526004016102ef90611556565b600084815260036020908152604080832060080180548251818502810185019093528083529193909284015b82821015610b8657600084815260209081902060408051606081018252600386029092018054835260018082015460ff16151584860152600290910154918301919091529083529092019101610b35565b5050505092505050919050565b610b9b611136565b60008281526003602052604080822081516101408101909252805482908290610bc39061187d565b80601f0160208091040260200160405190810160405280929190818152602001828054610bef9061187d565b8015610c3c5780601f10610c1157610100808354040283529160200191610c3c565b820191906000526020600020905b815481529060010190602001808311610c1f57829003601f168201915b50505050508152602001600182018054610c559061187d565b80601f0160208091040260200160405190810160405280929190818152602001828054610c819061187d565b8015610cce5780601f10610ca357610100808354040283529160200191610cce565b820191906000526020600020905b815481529060010190602001808311610cb157829003601f168201915b50505091835250506002820154602080830191909152600383015460ff811615156040808501919091526001600160a01b0361010092839004811660608601526004860154166080850152600585015460a0850152600685015460c0850152600785015460e08501526008850180548251818602810186019093528083529290940193909290919060009084015b82821015610dad57600084815260209081902060408051606081018252600386029092018054835260018082015460ff16151584860152600290910154918301919091529083529092019101610d5c565b5050509152505060606101208201529392505050565b60008281526003602052604090206002015482904210610df55760405162461bcd60e51b81526004016102ef9061152a565b6000838152600360205260408120905b6008820154811015610fdd5783826008018281548110610e3557634e487b7160e01b600052603260045260246000fd5b9060005260206000209060030201600001541415610fcb57816008018181548110610e7057634e487b7160e01b600052603260045260246000fd5b600091825260209091206001600390920201015460ff1615610ea45760405162461bcd60e51b81526004016102ef90611678565b6001826008018281548110610ec957634e487b7160e01b600052603260045260246000fd5b906000526020600020906003020160010160006101000a81548160ff021916908315150217905550816008018181548110610f1457634e487b7160e01b600052603260045260246000fd5b906000526020600020906003020160020154826005016000828254610f39919061183a565b909155505060088201805482908110610f6257634e487b7160e01b600052603260045260246000fd5b906000526020600020906003020160020154826006016000828254610f879190611866565b90915550506040517f9a9e23de1b93767b4da5983db1c8560ac499487355c698b0349423dfd248270890610fbe90879087906113aa565b60405180910390a1610fdd565b80610fd5816118b8565b915050610e05565b5050505050565b6060600180548060200260200160405190810160405280929190818152602001828054801561103257602002820191906000526020600020905b81548152602001906001019080831161101e575b5050505050905090565b60015460405160009161105d9187918791879187918d918d916020016113b8565b6040516020818303038152906040528051906020012090509695505050505050565b600082826040516020016110949291906113aa565b60405160208183030381529060405280519060200120905092915050565b8280546110be9061187d565b90600052602060002090601f0160209004810192826110e05760008555611126565b82601f106110f95782800160ff19823516178555611126565b82800160010185558215611126579182015b8281111561112657823582559160200191906001019061110b565b5061113292915061119d565b5090565b60405180610140016040528060608152602001606081526020016000815260200160001515815260200160006001600160a01b0316815260200160006001600160a01b03168152602001600081526020016000815260200160008152602001606081525090565b5b80821115611132576000815560010161119e565b80356001600160a01b038116811461092557600080fd5b60008083601f8401126111da578182fd5b50813567ffffffffffffffff8111156111f1578182fd5b60208301915083602082850101111561120957600080fd5b9250929050565b600060208284031215611221578081fd5b61122a826111b2565b9392505050565b600060208284031215611242578081fd5b5035919050565b6000806040838503121561125b578081fd5b50508035926020909101359150565b600080600080600080600060a0888a031215611284578283fd5b873567ffffffffffffffff8082111561129b578485fd5b6112a78b838c016111c9565b909950975060208a01359150808211156112bf578485fd5b506112cc8a828b016111c9565b90965094505060408801359250606088013591506112ec608089016111b2565b905092959891949750929550565b6001600160a01b03169052565b6000815180845260208085019450808401835b8381101561134e5781518051885283810151151584890152604090810151908801526060909601959082019060010161131a565b509495945050505050565b15159052565b60008151808452815b8181101561138457602081850181015186830182015201611368565b818111156113955782602083870101525b50601f01601f19169290920160200192915050565b918252602082015260400190565b600087898337878201818152868882376bffffffffffffffffffffffff19606096871b8116979091019687529390941b9092166014850152602884015250506048019392505050565b6001600160a01b039290921682521515602082015260400190565b6020808252825182820181905260009190848201906040850190845b8181101561145457835183529284019291840191600101611438565b50909695505050505050565b60006020825261122a6020830184611307565b901515815260200190565b90815260200190565b9182526001600160a01b0316602082015260400190565b9283526001600160a01b03919091166020830152604082015260600190565b60006101208083526114d18184018d61135f565b905082810360208401526114e5818c61135f565b604084019a909a52505095151560608701526001600160a01b0394851660808701529290931660a085015260c084015260e08301919091526101009091015292915050565b60208082526012908201527110d85b5c185a59db881a185cc8195b99195960721b604082015260600190565b60208082526026908201527f4f6e6c792074686520646f6e6f722063616e20706572666f726d20746869732060408201526530b1ba34b7b760d11b606082015260800190565b60208082526017908201527f43616d706169676e20616c726561647920657869737473000000000000000000604082015260600190565b60208082526026908201527f4f6e6c7920746865206f776e65722063616e20706572666f726d20746869732060408201526530b1ba34b7b760d11b606082015260800190565b6020808252601590820152744e6f20646f6e6174696f6e20617661696c61626c6560581b604082015260600190565b60208082526016908201527543616d706169676e206973207374696c6c206c69766560501b604082015260600190565b602080825260169082015275151bdad95b88185b1c9958591e481c995919595b595960521b604082015260600190565b6020808252602a908201527f42656e6566696369617279206973206e6f742061207665726966696564206f7260408201526933b0b734bd30ba34b7b760b11b606082015260800190565b6020808252602b908201527f4f6e6c79207468652062656e65666963696172792063616e20636c61696d207460408201526a3432903237b730ba34b7b760a91b606082015260800190565b6020808252601390820152724e6f20726566756e6420617661696c61626c6560681b604082015260600190565b600060208252825161014080602085015261178961016085018361135f565b91506020850151601f19808685030160408701526117a7848361135f565b935060408701516060870152606087015191506117c76080870183611359565b608087015191506117db60a08701836112fa565b60a087015191506117ef60c08701836112fa565b60c087015160e08781019190915287015161010080880191909152870151610120808801919091528701518685039091018387015290506118308382611307565b9695505050505050565b6000821982111561184d5761184d6118e7565b500190565b600082611861576118616118fd565b500490565b600082821015611878576118786118e7565b500390565b60028104600182168061189157607f821691505b602082108114156118b257634e487b7160e01b600052602260045260246000fd5b50919050565b60006000198214156118cc576118cc6118e7565b5060010190565b6000826118e2576118e26118fd565b500690565b634e487b7160e01b600052601160045260246000fd5b634e487b7160e01b600052601260045260246000fdfea2646970667358221220fb671ca1481580d17d0e55cded883fd5724938bc45e5a2f30c2a8a4d8ec39cc064736f6c63430008000033",
  "immutableReferences": {},
  "source": "// SPDX-License-Identifier: UNLICENSED\r\n\r\npragma solidity ^0.8.0;\r\n\r\ncontract Charity {\r\n\r\n    // These are events to be emitted when specific actions are completed\r\n    event OrganizationVerified(address organization, bool status);\r\n    event OrganizationRevoked(address organization, bool status);\r\n    event CampaignStarted(bytes32 campaignId, address donor);\r\n    event TokenRedeemed(bytes32 campaignId, bytes32 tokenId);\r\n    event RefundClaimed(bytes32 campaignId, address donor, uint256 amount);\r\n    event DonationClaimed(bytes32 campaignId, address beneficiary, uint256 amount);\r\n\r\n    address owner;\r\n    bytes32[] public campaignsIds;\r\n\r\n    struct Token {\r\n        bytes32 tokenId;\r\n        bool redeemed;\r\n        uint256 value;\r\n    }\r\n\r\n    struct Campaign {\r\n        string title;\r\n        string description;\r\n        uint256 deadline; //timestamp format\r\n        bool exists;\r\n        address payable donor;\r\n        address payable beneficiary;\r\n        uint256 balance;\r\n        uint256 refund;\r\n        uint256 deposit;\r\n        Token[] tokens;\r\n    }\r\n\r\n    constructor() {\r\n        owner = msg.sender;\r\n    }\r\n\r\n    // keep track of verified organizations\r\n    mapping(address => bool) public verifiedOrganizations;\r\n\r\n    // keep track of created campaigns using a unique ID\r\n    mapping(bytes32 => Campaign) public campaigns;\r\n\r\n    modifier onlyOwner {\r\n        require(msg.sender == owner, \"Only the owner can perform this action\");\r\n        _;\r\n    }\r\n\r\n    modifier onlyDonor(bytes32 campaignId) {\r\n        require(msg.sender == campaigns[campaignId].donor, \"Only the donor can perform this action\");\r\n        _;\r\n    }\r\n\r\n    modifier onlyVerifiedBeneficiary(address beneficiary) {\r\n        require(verifiedOrganizations[beneficiary], \"Beneficiary is not a verified organization\");\r\n        _;\r\n    }\r\n\r\n    modifier onlyLiveCampaign(bytes32 campaignId) {\r\n        require(block.timestamp < campaigns[campaignId].deadline, \"Campaign has ended\");\r\n        _;\r\n    }\r\n\r\n    modifier onlyEndedCampaign(bytes32 campaignId) {\r\n        require(block.timestamp >= campaigns[campaignId].deadline, \"Campaign is still live\");\r\n        _;\r\n    }\r\n\r\n    // only admin can verify or revoke organizations\r\n    function verifyOrganization(address _organization) public onlyOwner {\r\n        verifiedOrganizations[_organization] = true;\r\n        emit OrganizationVerified(_organization, true);\r\n    }\r\n\r\n    function revokeOrganization(address _organization) public onlyOwner {\r\n        verifiedOrganizations[_organization] = false;\r\n        emit OrganizationRevoked(_organization, false);\r\n    }\r\n\r\n    // check if an organization is verified\r\n    function isOrganizationVerified(address _organization) public view returns (bool) {\r\n        return verifiedOrganizations[_organization];\r\n    }\r\n\r\n    // generate a unique ID for a campaign from its title, description and creator address\r\n    function generateCampaignId(\r\n        address _donor, \r\n        address _beneficiary,\r\n        string calldata _title, \r\n        string calldata _description\r\n    ) private view returns(bytes32) {\r\n        return keccak256(abi.encodePacked(_title, _description, _donor, _beneficiary, campaignsIds.length));\r\n    }\r\n\r\n    // generate a unique ID for a token from its campaign ID and index\r\n    function generateTokenId(\r\n        bytes32 _campaignId, \r\n        uint256 _index\r\n    ) private pure returns(bytes32) {\r\n        return keccak256(abi.encodePacked(_campaignId, _index));\r\n    }\r\n\r\n    // create a new campaign for a verified organization \r\n    function startCampaign(\r\n        string calldata _title, \r\n        string calldata _description, \r\n        uint256 _deadline,\r\n        uint256 _tokenCounts,\r\n        address _beneficiary\r\n    ) public payable onlyVerifiedBeneficiary(_beneficiary) { \r\n        // generate a unique ID for the campaign\r\n        bytes32 campaignId = generateCampaignId(msg.sender, _beneficiary, _title, _description);\r\n\r\n        // get a reference to the campaign with the generated Id\r\n        Campaign storage campaign = campaigns[campaignId];\r\n\r\n        // require that the campaignId doesn't exist in the mapping\r\n        require(!campaign.exists, \"Campaign already exists\");\r\n\r\n        // set the campaign properties\r\n        campaignsIds.push(campaignId);\r\n        campaign.title = _title;\r\n        campaign.description = _description;\r\n        campaign.deadline = _deadline;\r\n        campaign.exists = true;\r\n        campaign.donor = payable(msg.sender);\r\n        campaign.beneficiary = payable(_beneficiary);\r\n        campaign.deposit = msg.value;\r\n        campaign.refund = msg.value;\r\n\r\n        // create tokens with equal value for the campaign\r\n        for (uint i = 0; i < _tokenCounts - 1; i++) {\r\n            bytes32 tokenId = generateTokenId(campaignId, i);\r\n            campaign.tokens.push(Token(tokenId, false, msg.value / _tokenCounts));\r\n        }\r\n\r\n        // create the last token with the remaining value\r\n        campaign.tokens.push(Token(generateTokenId(campaignId, _tokenCounts - 1), false, msg.value % _tokenCounts));\r\n\r\n        // emit the CampaignStarted event\r\n        emit CampaignStarted(campaignId, msg.sender);\r\n    }\r\n\r\n    // get the tokens of a campaign\r\n    function getCampaignTokens(bytes32 campaignId) public view onlyLiveCampaign(campaignId) onlyDonor(campaignId) returns(Token[] memory) {\r\n        return campaigns[campaignId].tokens;\r\n    }\r\n\r\n    // returns the IDs of all campaigns\r\n    function getCampaignsIds() public view returns(bytes32[] memory) {\r\n        return campaignsIds;\r\n    }\r\n\r\n    // returns the details of an active campaign given the campaignId\r\n    function getCampaign(bytes32 campaignId) public view returns(Campaign memory) {\r\n        \r\n        // retrieve a copy of the campaign with the given ID\r\n        Campaign memory campaign = campaigns[campaignId];\r\n\r\n        // remove the token array from the campaign before returning it\r\n        delete campaign.tokens;\r\n\r\n        return campaign;\r\n    }\r\n\r\n    // allow the donor to claim the refund\r\n    function claimRefund(bytes32 campaignId) public onlyEndedCampaign(campaignId) onlyDonor(campaignId) {\r\n\r\n        // get a reference to the campaign with the given ID\r\n        Campaign storage campaign = campaigns[campaignId];\r\n\r\n        // require that the refund is available\r\n        require(campaign.refund > 0, \"No refund available\");\r\n\r\n        // transfer the balance to the donor\r\n        campaign.donor.transfer(campaign.refund);\r\n        campaign.refund = 0;\r\n\r\n        emit RefundClaimed(campaignId, campaign.donor, campaign.deposit - campaign.balance);\r\n    }\r\n\r\n    // allow the beneficiary to claim the donation\r\n    function claimDonation(bytes32 campaignId) public onlyEndedCampaign(campaignId) {\r\n        \r\n        // get a reference to the campaign with the given ID\r\n        Campaign storage campaign = campaigns[campaignId];\r\n        \r\n        // require that the sender is the beneficiary of the campaign\r\n        require(msg.sender == campaign.beneficiary, \"Only the beneficiary can claim the donation\");\r\n\r\n        // require that the balance is available\r\n        require(campaign.balance > 0, \"No donation available\");\r\n\r\n        // transfer the balance to the beneficiary\r\n        campaign.beneficiary.transfer(campaign.balance);\r\n        campaign.balance = 0;\r\n\r\n        emit DonationClaimed(campaignId, campaign.beneficiary, campaign.balance);\r\n    }\r\n\r\n    // allow users to reedem the tokens they bought\r\n    function redeemToken(bytes32 campaignId, bytes32 tokenId) public onlyLiveCampaign(campaignId) {\r\n\r\n        // retrieve the campaign with the given ID\r\n        Campaign storage campaign = campaigns[campaignId];\r\n        \r\n        for (uint i = 0; i < campaign.tokens.length; i++) {\r\n            if (campaign.tokens[i].tokenId == tokenId) {\r\n\r\n                // require that the token has not been redeemed yet\r\n                require(!campaign.tokens[i].redeemed, \"Token already redeemed\");\r\n\r\n                // mark the token as redeemed and change the owner to the beneficiary\r\n                campaign.tokens[i].redeemed = true;\r\n                campaign.balance += campaign.tokens[i].value;\r\n                campaign.refund -= campaign.tokens[i].value;\r\n\r\n                // emit the TokenRedeemed event\r\n                emit TokenRedeemed(campaignId, tokenId);\r\n\r\n                break;\r\n            }\r\n        }\r\n    }\r\n}",
  "sourcePath": "C:\\Users\\Matteo\\Documents\\GitHub\\charitychain\\blockchain\\contracts\\Charity.sol",
  "compiler": {
    "name": "solc",
    "version": "0.8.0+commit.c7dfd78e.Emscripten.clang"
  },
  "schemaVersion": "3.4.16",
  "updatedAt": "2024-07-13T10:42:28.316Z",
  "networkType": "ethereum",
  "devdoc": {
    "kind": "dev",
    "methods": {},
    "version": 1
  },
  "userdoc": {
    "kind": "user",
    "methods": {},
    "version": 1
  }
}